:0A00000002125BD291C292D292224A
:0F000B00020E46D2A07D017F021210C5C2A022B4
:10001B000214FE0203DFE86480F8E933E833601171
:10002B000460F0ED33EC337009E8FCE9FDEAFEEB1C
:10003B00FF220460DED3EB9FEA9EE99DE8C2E78CCA
:10004B00F0C2F795F0400CE8CCF8E9CDF9EACEFA1E
:10005B00EBCFFB1203AA85D0F05804700320D5B365
:10006B00E80470075002B2D50203E992D5EC0460A4
:10007B00F7E4CCC0E0C398F8603B94186008400DDF
:10008B00D0E0FB0203C1E4FBFAC9FC8028E830E4B2
:10009B0006E4C9FBE4CAFCE830E305E4C9CACBFCBF
:1000AB00E854076010F8C3E913F9EA13FAEB13FBF2
:1000BB00EC13FCD8F130F52FC3E49CFCEF9BFFEE67
:1000CB009AFEED99FDD0E0FBEF4E4D4C701222DB0A
:1000DB00030203E6EC2CFCEF33FFEE33FEED33FDB6
:1000EB00ED30E7EB0203C1EF2BFFEE3AFEED39FDEE
:1000FB00D0E0FB50130BBB00030203E9ED13FDEE45
:10010B0013FEEF13FFEC13FC0203C1EC4D6011E87F
:10011B00497017ED33EC3304600DE4FCFFFEFD2258
:10012B00E933E8330470F80203DF1203AA580460C2
:10013B0009E4CC248150062850090203E928400326
:10014B000203E6C0E0EB4A7044B98006D0E0FB0244
:10015B0003D5EF4E701CBD8008EBFFEAFEE9FD8076
:10016B00EBE98DF0A4FEE5F00201FFE9CDF9EAFE23
:10017B00EBFFEF89F0A4FCE5F0CE89F0A42EFFE4B1
:10018B0035F0CD89F0A42DFEE435F08067EF4E708D
:10019B0005BD80D780C3EF8BF0A4ACF0EE8BF0A441
:1001AB002CFCE435F0F8EF8AF0A42CE5F038FCE4F5
:1001BB0033CB8DF0A42CFCE5F03BF8EE8AF0A42CAD
:1001CB00FCE5F038F8E433CF89F0A42CFCE5F038EB
:1001DB00CF3400CE89F0A42FFFE5F03EFEE433C907
:1001EB008DF0A42EFEE5F039CD8AF0A42FFFE5F0BB
:1001FB003EFEE43DFD33D0E0FB50070BBB000F028E
:10020B0003E9EC2CFCEF33FFEE33FEED33FD020381
:10021B00C10203E9EC5D046005E8590470030203B5
:10022B00DF1203AA580460F6EC4860F2EC7004FD90
:10023B00FEFF22C860DB2481C85009C398600250BE
:10024B00060203E69850CAF582E9294B4A7005ABC2
:10025B00820203D575F0007C1A7880C3EF9BEE9A6F
:10026B00ED99400DC3EF9BFFEE9AFEED99FDE84231
:10027B00F0DC23ACF0D0E0FFD0E0FED0E0FDAB82B1
:10028B0020E7101BEB60BAEC2CFCEF33FFEE33FED8
:10029B00ED33FD0203C1E803F830E705C0F075F05C
:1002AB0000EF2FFFEE33FEED33FD40B830E7C28099
:1002BB00AA74F8CC6480CCC86480C8F58204604F03
:1002CB00C3EB9FF5F0EA9E42F0E99D42F0E89C45B6
:1002DB00F0603C501DE5825FFFE582D313CB5BCB17
:1002EB00F42B5582FB50280ABA002409B9002008C8
:1002FB00801DE5825BFBE582D313CF5FCFF4C31385
:10030B002F5582FF50090EBE00050DBD00010CC319
:10031B00EB9FF5F0EA9E42F0E99D42F0E89C45F038
:10032B006007CC4820E701B3EC2275F020800E75F6
:10033B00F010800575F0087D007E007F003392D5AC
:10034B0030D503120655EC334010EF33FFEE33FE7E
:10035B00ED33FDEC33FCD5F0ED22E5F0247EA2D598
:10036B0013CC92E7CDCEFF22EDD2E7CD33EC339217
:10037B00D524814006E4FFFEFDFC22FCE4CFCECD6C
:10038B00CC24E0501174FF80EDC3CC13CCCD13CD36
:10039B00CE13CECF13CF0470F030D5DE020655E965
:1003AB00D2E7C933E833F892D5EDD2E7CD33EC334E
:1003BB00FC5002B2D522EC30E7100FBF000C0EBE82
:1003CB0000080DBD00040BEB6014A2D5EB13FCED84
:1003DB0092E7FD2274FFFCFDFEFF22E480F8A2D51C
:1003EB0074FF13FC7D80E480EFF920E72824F9509B
:1003FB00037907E4F42402FB18DBFDE624FB50141D
:10040B00E9600DE4F618E604F6B40A08E4F6D9F54B
:10041B007401F60A22C2D522ED33EC3392D5FA6081
:10042B002AB4FF33EDC2E77BFF60067A047948E418
:10043B00227A04795120D5047A04794C224E614EEC
:10044B00002B494E46002D494E4600E47A08F6082B
:10045B00DAFC7B00740722E8C0E0ECC0E0EDC0E002
:10046B00EEC0E0EFC0E0EA75F010A4CAABF075F097
:10047B004DA42BFBE435F0FCEA2410FAEB34C5FB5E
:10048B00EC34D9FCEDC2E7FF75F056A4F42411C58A
:10049B00F0F434C58FF0A42AE5F03BE43CF620E7FA
:1004AB0014120556D0E0FFD0E0FED0E0FDD0E0FC0A
:1004BB0012021F8014F404120556D0E0FFD0E0FEA8
:1004CB00D0E0FDD0E0FC120116D0E0F8E6FAEDD258
:1004DB00E7CD33EC332482FBE4C3CF33CFCE33CE23
:1004EB00CD33CD33DBF37B0775F00A846004F6085C
:1004FB001B0AE5F0F6088FF0740AA4FFACF08EF03F
:10050B00740AA42CFEACF050010C8DF0740AA42CD0
:10051B00FDE435F0F608DBDE7407223F8000004176
:10052B0020000042C80000447A0000461C400047EF
:10053B00C35000497424004B1896804CBEBC205A03
:10054B000E1BCA6753C21C749DC5AEFB60065407D5
:10055B00601C2323120584EB5438600912057012BA
:10056B00057F120116ECF8EDF9EEFAEFCB22EB1248
:10057B00057F80F1543803241C900526FE93FC0E56
:10058B00EE93FD0EEE930ECE93FF22BB01068982F6
:10059B008A83E0225002E722BBFE02E32289828A91
:1005AB0083E49322BB010CE58229F582E5833AF5BE
:1005BB0083E0225006E92582F8E622BBFE06E925F8
:1005CB0082F8E222E58229F582E5833AF583E4930A
:1005DB0022BB010689828A83F0225002F722BBFEDE
:1005EB0001F322EF8DF0A4A8F0CF8CF0A428CE8DD0
:1005FB00F0A42EFE22BC000BBE0029EF8DF084FF71
:10060B00ADF022E4CCF875F008EF2FFFEE33FEECE3
:10061B0033FCEE9DEC984005FCEE9DFE0FD5F0E90A
:10062B00E4CEFD22EDF8F5F0EE8420D21CFEADF009
:10063B0075F008EF2FFFED33FD4007985006D5F00E
:10064B00F222C398FD0FD5F0EA22C3E49FFFE49E8C
:10065B00FEE49DFDE49CFC22ECF0A3EDF0A3EEF098
:10066B00A3EFF022FAE6FB0808E6F925F0F618E608
:10067B00CA3AF622D083D082F8E4937012740193B5
:10068B00700DA3A393F8740193F5828883E47374BC
:10069B0002936860EFA3A3A380DFE553243FF8E642
:1006AB00055322783C300702783FE475F0011206BF
:1006BB006F0205962000EB7F2ED2008018EF540FAF
:1006CB002490D43440D4FF30040BEF24BFB41A0071
:1006DB0050032461FFE554600215540557E557702C
:1006EB0002055630070D783CE475F00112066FEFEA
:1006FB000205DC0216857403D2078003E4C207F5FA
:10070B00538B3C8A3D893EE4F554F556F557E55439
:10071B0060077F201206E080F57555FFC201C2000D
:10072B00C202C203C205C206C2081206AEFF700D9A
:10073B003007057F001206F1AF57AE5622B4255F86
:10074B00C2D5C2041206AEFF24D0B40A00501A75EB
:10075B00F00A785430D50508B6FF0106C6A426F674
:10076B0020D5047002D20380D924CFB41A00EF50E5
:10077B0004C2E5D2040209DED20180C6D20080C0D9
:10078B00D20280BCD2D580BAD20580B47F201206AB
:10079B00E02002077401B5540040F11206A5FF12C8
:1007AB0006E0020719D208D20680951206A5FB12A5
:1007BB0006A5FA1206A5F94A4B700679D57A0A7B7B
:1007CB00FF20022EE554602A7E008E827583001274
:1007DB0005AF60060EEE655570F0C2D5EBC0E0EAD2
:1007EB00C0E0E9C0E0EE120A3ED0E0F9D0E0FAD06A
:1007FB00E0FB120596FF60AAEBC0E0EAC0E0E9C09F
:10080B00E01206E0D0E02401F9D0E03400FAD0E0A9
:10081B00FBE5550460DCD555D98087D20280A21246
:10082B000A2160F7E5557001041203F4A955600D18
:10083B00E555600914F555120AC8EF60F3EA30E785
:10084B0002F404C3995077EAF425550430E701E428
:10085B0004F555800D120A2160C1EA055525551284
:10086B0003F4EA7852F630E701E4255504D5550434
:10087B0020050114120A3EE4C0E0120AC87852E6C1
:10088B00601320E70714F61206C8802204F6D0E0A6
:10089B0014C0E07F001206C8E55560071206BF15AD
:1008AB0055800B3005031206BFD0E0020719D0E0CC
:1008BB000480C5120A2160A0E555041203F4785296
:1008CB00EAF6E5552005026001042404120A3E7481
:1008DB00FF04C0E0120AC81206C8E55520050260E5
:1008EB00031206BFD0E0B555E87F451206D2785209
:1008FB00E67F2B30E7047F2DF404C0E01206E0D036
:10090B00E075F00A84C0F01206C9D0E01206C902E5
:10091B000719791080027908C206C2088008D2D55F
:10092B00790A8004790AC2D5E555047002F555E4BD
:10093B00FAFDFEFF1206A5FC7B082001131206A58B
:10094B00FD7B1030000A1206A5FE1206A5FF7B20C8
:10095B00EC3382D592D55013C3E43000069FFFE4ED
:10096B009EFEE42001039DFDE49CFCE4CBF8C20158
:10097B00EC700CCFCECDCCE824F8F870F38017C315
:10098B00EF33FFEE33FEED33FDEC33FCEB33FB9932
:10099B004002FB0FD8E9EB300105F8D0E0C448B2B8
:1009AB0001C0E00AEC4D4E4F78207B0070C2EAB5D7
:1009BB00550040BCC0E0120A40D0F0D0E02001044A
:1009CB00C4C0E0C4B201C0F01206C9D0F0D5F0EB40
:1009DB0002071912067F07B653091D5807874C07E4
:1009EB00834209214F092944092949079C43092FAF
:1009FB005508604608BE45082A470AF550078B2D57
:100A0B00078F2E07B22B07932307B0200ADE2A0786
:100A1B004B48000007AAE555B4FF037555061206AF
:100A2B00A5FC1206A5FD1206A5FE1206A5FF784B26
:100A3B00020423790AA2D5200314300509B9100248
:100A4B000404B9080104A2D52006025001042002B7
:100A5B00689202B554005034C0E07F203003197FF8
:100A6B0030A20272067205500F120A97C202C2061A
:100A7B00C205C2087F30800F300503E9C0E01206C3
:100A8B00E0300503D0E0F9D0E0B554CC3005177F4A
:100A9B0030B9100C1206E07F583004077F788003C2
:100AAB00B908031206E03002057F2D0206E07F2015
:100ABB002008F87F2B2006F322920280CF7F00B410
:100ACB0007005005244BF8E6FF22286E756C6C2945
:100ADB0000D2011206A53001F8C201785430D501BD
:100AEB0008F602074B2D504349581206A52403B4B0
:100AFB0005004001E4900AF0931206D1743A1206F5
:100B0B00D1D20375540402091D1213F1900000EEAB
:100B1B00F0A3EFF0D3945EEE94015048900000E008
:100B2B00FCA3E0FDE412033AE4FBFA7920784112CE
:100B3B00021F8F198E188D178C16753FFF75401974
:100B4B007541D28F458E448D438C427B007A007960
:100B5B00361207017B007A00793675410C7D017FD7
:100B6B004D12158EE50E64017004F50E80461211C0
:100B7B004CC004C005C006C00790001E1211B8D0AF
:100B8B0003D002D001D00012116A9000021211C7DB
:100B9B007540197541DA900002120DC175410C7D3B
:100BAB00017F0112158E9000021211A35004D28105
:100BBB008002C281E50F64017004F50F80461211AB
:100BCB004CC004C005C006C0079000221211B8D05B
:100BDB0003D002D001D00012116A9000061211C787
:100BEB007540197541E5900006120DC175410C7DDC
:100BFB00027F0112158E9000061211A35004D282AF
:100C0B008002C282E51064017004F5108044121159
:100C1B004CC004C005C006C0079000261211B8D006
:100C2B0003D002D001D00012116A90000A1211C732
:100C3B007540197541F090000A120DE375410C7D5A
:100C4B0003120E2790000A1211AA5004D2838002BD
:100C5B00C283E51164017004F511804412114CC07C
:100C6B0004C005C006C00790002A1211B8D003D0EB
:100C7B0002D001D00012116A90000E1211C77540FC
:100C8B00197541FB90000E120DE375410C7D04129A
:100C9B000E2790000E1211AA5004D2848002C28437
:100CAB00E51264017004F512804412114CC004C0AB
:100CBB0005C006C00790002E1211B8D003D002D089
:100CCB0001D00012116A9000121211C775401A75EB
:100CDB004106900012120E0575410C7D05120E3463
:100CEB009000121211AA5004D2858002C285E5131E
:100CFB0064017004F513804412114CC004C005C08C
:100D0B0006C0079000321211B8D003D002D001D028
:100D1B000012116A9000161211C775401A75411115
:100D2B00900016120E0575410C7D06120E349000C4
:100D3B00161211AA5004D2868002C286E5146401F1
:100D4B007005F514020B1412114CC004C005C0063B
:100D5B00C0079000361211B8D003D002D001D000DA
:100D6B0012116A90001A1211C775401A75411C9026
:100D7B00001AE0FCA3E0FDA3E0FEA3E0F5458E44E2
:100D8B008D438C427B007A00792E1207017B007A0F
:100D9B0000792E75410C7D077F0112158EE4FFFE45
:100DAB007D407C4090001A1211AA5005D287020B8D
:100DBB0014C287020B14E0FCA3E0FDA3E0FEA3E04A
:100DCB00F5458E448D438C427B007A00792E1207B9
:100DDB00017B007A00792E22E0FCA3E0FDA3E0FE6C
:100DEB00A3E0F5458E448D438C427B007A00792E2F
:100DFB001207017B007A00792E22E0FCA3E0FDA311
:100E0B00E0FEA3E0F5458E448D438C427B007A00D7
:100E1B00792E1207017B007A00792E227F011215A1
:100E2B008EE4FFFE7D407C40227F0112158EE4FF95
:100E3B00FE7D407C4022C2AF80FE32120E4585D033
:100E4B000B75D008AAE0C28CE58A241FF58AE58CC5
:100E5B0034FCF58CD28CEC241DF8E6BC020274FF3A
:100E6B00C39581B4140040CE7903785816E6087008
:100E7B000BC2AFE630E1034418F6D2AF08D9EDEA66
:100E8B008BD030090122D50DFCC0E0C0D0C0F0C022
:100E9B0083C082C000C001C002C003C004C005C033
:100EAB0006C007E50C232459F87440C2AF46F6D2AE
:100EBB00AFD209E50CFF232459F80F0808BF030430
:100ECB007F007859E630E4F200E50CC39F50200513
:100EDB000C741C250CF8E6FDA68108E6AE0CBE02D0
:100EEB000274FFCDF8E86D60E008E6C0E080F6E53F
:100EFB000CD39F4027E50C241DF8E6AE0CBE020276
:100F0B0074FFFD18E6CDF8E5816D6006D0E0F618AC
:100F1B0080F5E50C241CC8F6150C80D3750DC8E5BF
:100F2B000C232459F87F04C2AFE610E61E30E00311
:100F3B0010E20C7F0030E10730E3047F0854F454D7
:100F4B007CC6D2AF54804207C20922F6D2AFD0077B
:100F5B00D006D005D004D003D002D001D000D0826F
:100F6B00D083D0F0D0D0D0E0C20922781CA68174F7
:100F7B00026006FF0876FFDFFB7F03E47858F60874
:100F8B00F608DFFA78597630901799740193C0E020
:100F9B00E493C0E0750DC8438901758A18758CFC04
:100FAB00D28CD2AFD2A92202EFD3940240037FFF9F
:100FBB002274592F2FF8E620E5F4C2AFE64430F641
:100FCB00D2AFAE0CEEC39F50210E741C2EF8E6F977
:100FDB0008E618BE020274FFFDED69600909E71906
:100FEB0019F7090980F3161680DAEED39F40040532
:100FFB00810581EED39F4022741C2EF808E6F9EE92
:10100B00B50C02A981180606E6FDED6960091919F0
:10101B00E70909F71980F31E80D9EF241CF8E604C1
:10102B00F8EF2F0490179993F608EF2F93F67F00A4
:10103B0022EFD3940240037FFF22EF232459F8E6DB
:10104B0030E5F4C2AFE6548CF6D2AFE50CB5070A27
:10105B00741C2FF8E6F581020EBC502E741D2FF870
:10106B00E6BF020274FFFD18E6F9741C2FF8FBE6CD
:10107B00FCE96C6008A805E7F61D1980F4A803A627
:10108B00051FE50CB507E37F0022741D2FF8E6FD65
:10109B001886010F741C2FF8A601088604E50CB501
:1010AB000702AC81ED6C60080D09A805E6F780F42A
:1010BB00E50CB507DE89817F00228FF0E4FFFEE5AA
:1010CB000C232458F8C2A930F70D7F08E6600B2DCE
:1010DB00F660325030800730F106EDF660277E0265
:1010EB000830F010C2AFE610E7250E30E20CD2AF9D
:1010FB007F048014C2AFE610E71554EC4EF6D2AF66
:10110B00D2A9020EBC7F0808EF4483F4C2AF56C6C7
:10111B00D2AFD2A954804FFF22AF8DEFFEAD8B7CA7
:10112B0000E42DFFEC3EFEEF2430FFEE3475FEE4C1
:10113B0034FFFDEC34FFFC120663758BD0758D8A82
:10114B00227FEC7E517D387C3DAB19AA18A917A8DC
:10115B00161201167B007AC079A57843020025127E
:10116B000116E4FBFA794878421201167B007A24C7
:10117B007974784902021FC28EAF8DEFFEAD8B7C66
:10118B0000E42DFFEC3EFEEF2430FFEE3475FEE461
:10119B0034FFFDEC34FFFC22E4FFFE7D407C40E09D
:1011AB00F8A3E0F9A3E0FAA3E0FB0202BCE0FCA386
:1011BB00E0FDA3E0FEA3E0FFE40203351206637536
:1011CB003FFF2212000E30A1FDD28E20A1FDC28E58
:1011DB0090001E12112412172730A3FDD28E20A3CC
:1011EB00FDC28E90002212112412173330A5FDD2AE
:1011FB008E20A5FD12118290002612114212173F6C
:10120B0030A7FDD28E20A7FD12118290002A121159
:10121B004212174B30B3FDD28E20B3FD12118290C8
:10122B00002E12114212175730B5FDD28E20B5FD8C
:10123B001211829000321211421217633095FDD2B7
:10124B008E2095FD1211829000361211420211CEA2
:10125B00787FE4F6D8FD75815D0212A2020F76E469
:10126B0093A3F8E493A34003F68001F208DFF48024
:10127B0029E493A3F85407240CC8C333C4540F4474
:10128B0020C8834004F456800146F6DFE4800B014E
:10129B00020408102040809012E7E47E019360BCAA
:1012AB00A3FF543F30E509541FFEE493A360010EE6
:1012BB00CF54C025E060A840B8E493A3FAE493A30D
:1012CB00F8E493A3C8C582C8CAC583CAF0A3C8C52E
:1012DB0082C8CAC583CADFE9DEE780BE010E000102
:1012EB000F00011000011100011200011300011485
:1012FB000044001E000000004400220000000044D7
:10130B0000260000000044002A0000000044002ECC
:10131B0000000000440032000000004400360000D2
:10132B000000440002000000004400060000000022
:10133B0044000A0000000044000E000000004400BE
:10134B0012000000004400160000000044001A00C8
:10135B000000000416000000004200000000021A0A
:10136B00000000E4FDFC7FAE121556FF1215567FF0
:10137B00101215567F401215567FB01215567F81ED
:10138B001215567FFF1215567FA11215567FA61206
:10139B0015567FA81215567F3F1215567FC812158A
:1013AB00567FD3121556FF1215567FD51215567F41
:1013BB00801215567FD81215567F051215567FD9F8
:1013CB001215567FF11215567FDA1215567F12122F
:1013DB0015567FDB1215567F30FE1216F712154885
:1013EB007FAFFE0216F7E4FAFFFDFCF53FF53EF585
:1013FB003DF53C1216357FCC1216D27F441216D215
:10140B001216357FCC1216D27FBE1216D212165D73
:10141B00AA0712165DAD07EDFCEAFDE412033AE4F0
:10142B00FBFA7980783D1201168F3F8E3E8D3D8CF5
:10143B003CE4FFFE7D207C41AB3FAA3EA93DA83C8E
:10144B00120116E4FBFAF9783F120025020373E44C
:10145B00F547F9EB24E0F547EFD3947F7480948044
:10146B004004E4FF0D0DE54664106038121609E4E4
:10147B00F9E9C3940674809480502975F006E5470A
:10148B00A4249FF582E5F03417F583E58229F582D4
:10149B00E43583F583E493FF7E007D017C00121617
:1014AB00F70980CD2212171812163512136E12156A
:1014BB00D2C290E4F580758910121145D2ABD2AF30
:1014CB001215D27BFF7A1979C775410CE4FDFF1217
:1014DB00158E7BFF7A1979CC75410CE4FD7F4B128D
:1014EB00158E7F01120FB37F02120FB3E4FF1210A0
:1014FB003C80FE30A107750E01C2A1803A30A307D4
:10150B00750F01C2A3803030A507751001C2A580ED
:10151B002630A707751101C2A7801C30B3077512BF
:10152B0001C2B3801230B507751301C2B580083004
:10153B009505751401C295C28E12114532E4FDFC5E
:10154B007F8DFE1216F77F14E4FDFCFE1216F7E4F6
:10155B00FDFC22E9FF7E00C394087480948022ACCA
:10156B00071217907F781216AC021713E500C313FE
:10157B008500F0A42500FF22EF24B0FFEE33FEE43C
:10158B00FDFC228F3C8D3D8B3E8A3F8940E4F5422A
:10159B00AB3EAA3FA9408542827583001205AFFB83
:1015AB006024854146AD3DAF3C12145A7408253C6E
:1015BB00F53CD39478748094804007E4F53C053D6A
:1015CB00053D054280CA22E4F912155E502F121513
:1015DB0083121557FF1215567F10FE1216F7E4F5FE
:1015EB0022C3E522948074809480500E7D017C0090
:1015FB00E4FFFE1216F7052280E70980CC22A9072B
:10160B00ED24B0FFE433FEE4FDFC1216F7E954F0D1
:10161B00C4540F7E004410FFE4FDFC1216F7E9548E
:10162B000FFF7E00E4FDFC0216F7E4FDD2B67F0847
:10163B00FE121785C2B67F507E00121785D2B67F79
:10164B000E7E00121785A2B6E433FD7F147E0002D6
:10165B001785E4FB7D08EDD39400748094804017CC
:10166B00C2B6EB13FBD2B630B6034303807F047EC6
:10167B00001217851D80DFAF0322EFB40A07740D2C
:10168B00121690740A309811A899B8130CC298309E
:10169B0098FDA899C298B811F63099FDC299F599A1
:1016AB0022C291E4FEEE121562501BAD075305806A
:1016BB00ED64807004D2928002C292EF25E0FFD2DB
:1016CB0091C2910E80DF22AD077B08EBD39400749F
:1016DB008094804016C2B6ED1392B67F057E001241
:1016EB001785D2B6EDC313FD1B80E022AB07AA060C
:1016FB00ED4C600302177AAF0312176F221216AC70
:10170B00121713AF041216ACD291C29122C2A0C20F
:10171B00A2C2A4C2A6C2B2C2B4C29422D2A27D01FA
:10172B007F021210C5C2A222D2A47D017F02121029
:10173B00C5C2A422D2A67D017F021210C5C2A62269
:10174B00D2B27D017F021210C5C2B222D2B47D018A
:10175B007F021210C5C2B422D2947D017F021210F7
:10176B00C5C2942212156AE4FF1217080200031275
:10177B00156A7F40121708020003EF1FAC067001B9
:10178B001E4C70F622D291D292C292C2912214B008
:10179B0011CE0B140000000000000000002F000011
:1017AB0000000700070000147F147F1400242A7F19
:1017BB002A12006264081323003649552250000098
:1017CB000503000000001C224100000041221C0008
:1017DB000014083E08140008083E0808000000A08A
:1017EB006000000808080808000060600000002086
:1017FB0010080402003E5149453E0000427F400064
:10180B00004261514946002141454B3100181412E9
:10181B007F10002745454539003C4A4949300001B6
:10182B007109050300364949493600064949291E05
:10183B000000363600000000563600000008142267
:10184B004100001414141414000041221408000267
:10185B000151090600324959513E007C1211127C8C
:10186B00007F49494936003E41414122007F4141B9
:10187B00221C007F49494941007F09090901003EAB
:10188B004149497A007F0808087F0000417F4100E9
:10189B00002040413F01007F08142241007F40405F
:1018AB004040007F020C027F007F0408107F003E47
:1018BB004141413E007F09090906003E4151215E2D
:1018CB00007F091929460046494949310001017F2A
:1018DB000101003F4040403F001F2040201F003FC0
:1018EB004038403F00631408146300070870080772
:1018FB0000615149454300007F41410000552A5585
:10190B002A55000041417F000004020102040040FF
:10191B004040404000000102040000205454547821
:10192B00007F484444380038444444200038444441
:10193B00487F00385454541800087E0901020018DF
:10194B00A4A4A47C007F080404780000447D40001C
:10195B00004080847D00007F102844000000417F00
:10196B004000007C04180478007C080404780038DC
:10197B004444443800FC242424180018242418FC64
:10198B00007C0804040800485454542000043F44CD
:10199B004020003C4040207C001C2040201C003C90
:1019AB004030403C004428102844001CA0A0A07CE0
:1019BB00004464544C441414141414144469733ABE
:1019CB000054656D703A00252D342E31664300317D
:1019DB003A252D352E3166636D00323A252D352E85
:1019EB003166636D00333A252D352E3166636D00FC
:1019FB00343A252D352E3166636D00353A252D355C
:101A0B002E3166636D00363A252D352E3166636DAA
:0C1A1B0000373A252D352E3166636D0032
:00000001FF
