:0308FF00010801EC
:1008CB00759850438920758DFDE4F58BD28ED2AF90
:0308DB00D2AC227A
:0908F1002099058F993099FD2230
:1008DE001208B2FF600C1208F1740129F9E43AFA19
:0308EE0080EE2277
:0300230002088C44
:09088C00C0E0C0D075D000C00727
:1008950030980EC298AF9905081208F1E508139231
:0608A50090309902C29997
:0708AB00D007D0D0D0E032ED
:0508FA001208CB80FE96
:03000000020800F3
:0C080000787FE4F6D8FD758108020847F7
:1008B200BB010689828A83E0225002E722BBFE0244
:0908C200E32289828A83E4932277
:10080C000208FAE493A3F8E493A34003F68001F200
:10081C0008DFF48029E493A3F85407240CC8C333ED
:10082C00C4540F4420C8834004F456800146F6DFBC
:10083C00E4800B01020408102040809008FFE47E45
:10084C00019360BCA3FF543F30E509541FFEE493B1
:10085C00A360010ECF54C025E060A840B8E493A378
:10086C00FAE493A3F8E493A3C8C582C8CAC583CAA3
:10087C00F0A3C8C582C8CAC583CADFE9DEE780BE5B
:0109020000F4
:00000001FF
