:10000E0059616E20487561205969204C656E6720D4
:10001E002020204661205275205875652020202012
:10002E0020204A69616E2044616E204169202020A3
:10003E005A686920596F75204D616D612048616F56
:10004E002044616E67204E692047752044616E2002
:10005E005869616E674A69616E205869616F4C75A7
:10006E0020202020536F6E672042696520202020BB
:10007E004C616E67204D616E204465205368692087
:10008E00050201030201020202020204030201013F
:10009E00020102020103020405020103020102022F
:1000AE00020202020501010302010402010302041D
:1000BE00030201030201070201030201020202010F
:1000CE0002010701010102010202010302010602FF
:1000DE0003060101010201030201020201060101F0
:1000EE0001020107010105010106010605020103D6
:1000FE0002010202020202010202010302010102D6
:10010E0001020201030204050201030201020202BE
:10011E0002020102020105010103020104020103B0
:10012E000204030201030201070203030201020299
:10013E000201020107010101020102020103020193
:10014E000602030601010102010302010202010679
:10015E00010101020107010205010206010600006C
:10016E000005010102020103020202020103020163
:10017E00050201060201050203010201020201034A
:10018E000201060201050201030201050203050236
:10019E00010602010103020602010502010302012A
:1001AE000502010302020102010202010302010122
:1001BE000201060101030201020201050101020210
:1001CE0001030202020201030201050201060201FD
:1001DE0005020301020102020103020106020105EA
:1001EE0002030502010602010103020602010502D5
:1001FE0001030201050201030202010201060101CF
:10020E0003020102020101020106010101020102C3
:10021E0002010202010102040000000501010102B7
:10022E0001020201030201020201030201040201A2
:10023E000502010502010502010402010302010289
:10024E00020305010101020102020103020104027F
:10025E000105020105020105020106020105020265
:10026E000202010302010102020102010601010262
:10027E000201020201030201030201010201050251
:10028E000101020105020101020107010101020142
:10029E000102010601010202010202010302010331
:1002AE000201050201050201050201060201050215
:1002BE000202020103020101020205010101020113
:1002CE0002010203020102020103020104020105FE
:1002DE0002010502010502010402010302010202EC
:1002EE0003050101010201020201030201020201E2
:1002FE0003020104020105020105020105020202C8
:10030E0002010302010102020102010601010202C1
:10031E0001020201030201030201010202050201B0
:10032E00010201050201050201070101010201009E
:10033E000000060203050201030202050202010388
:10034E000206020105020106020403020205020171
:10035E000602010502020302020102010601010565
:10036E00020103020102020402020303020105025A
:10037E000205020106020103020202020201020448
:10038E00050203030201020201010201060101013D
:10039E00020105010600000003020203020104022D
:1003AE00010302020202010102010202020502021F
:1003BE000202020202030102020102010202010113
:1003CE0002020701010601010701020302020701F1
:1003DE0002070103060102020201030201020201E9
:1003EE0001020106010205010202020103020102DD
:1003FE0002010102010601020601020202010302CC
:10040E0001020201010201060101070101010206BA
:10041E0000000003010203010103010106000106B1
:10042E00000101010206000105000106000406009C
:10043E00020600010600010600020600010101018C
:10044E000201020201010301010201040301010381
:10045E000101030101020101040102040102030171
:10046E00020201010101010201040700010700015E
:10047E000700010600010500010500010600010745
:10048E000001070001060001050001060004060137
:10049E000203010106010107010106010105010127
:1004AE000501020501010201010501010601010517
:1004BE000101040101040102040101030101020111
:1004CE000201010102010103010102010101010109
:1004DE0002010103010406010203010106010107E5
:1004EE0001010601010501010501020201010501DB
:1004FE0001060101050101040101000000050102D0
:10050E0003010305010101020306010201020205B6
:10051E0001040501020101010201010301020201B0
:10052E00010101010201040501020301010501019E
:10053E000102020701010601020102020501040582
:10054E000102020101030101040102070001010180
:10055E000406010201020201020407010206010162
:10056E000701010102040601010701010102010652
:10057E000101060101050101030101010101020151
:10058E000805010203010105010101020207010133
:10059E000601020102020501040501020201010326
:1005AE00010104010207000201010400000005011F
:1005BE000106010101020106010206010105010108
:1005CE0006010105010103010105010505010106F1
:1005DE0001010102010601020601010501010601E8
:1005EE0001050101060101010105010101020101DF
:1005FE0003010102010102010102010101010102D7
:10060E0001010101010601010301020201030501BD
:10061E0001060101010201060102060101050101A7
:10062E000601010501010601010101050101010299
:10063E00010103010104010204010105010106018A
:10064E000106010105010106010201020106010375
:10065E000102010601010501010501040101010666
:10066E000101050105050101060101010201030158
:10067E0001020101030101010106000000F2F3F580
:10068E00F5F6F7F8F9F9FAFAFBFBFCFCFCFDFDFDBB
:10069E00FDFEFEFEFEFEFEFEFF42C117B6D0D1B637
:1006AE0021E18CD868E95B8FEE446BB4F42D47776B
:0506BE00A2B6DAFA16F5
:0B0C1300C2A6C2A58980120C1ED2A54B
:100C1E00E4FDFCC3ED9FEC9E5015E4FBFA0BBB000C
:0F0C2E00010AEB64644A70F50DBD00010C80E40F
:010C3D002294
:100CBB00A9077F017E00120C1EC2A7120C13C2A53E
:010CCB002206
:100C62007F86120CBB7F50120C737F4C120C737F69
:010C72004140
:100C7300A9077F017E00120C1ED2A7120C13C2A576
:010C8300224E
:100C84007F0F7E00120C1E7F38120CBB7F057E0086
:100C9400120C1E7F0C120CBB7F06120CBB7F0102D0
:020CA4000CBB87
:100BE6007FC4120CBB7F57120C737F45120C737FA8
:100BF6004C120C737F43120C737F4F120C737F4D94
:0D0C0600120C737F45120C737F21020C73DA
:070B4F00E4F50DF50EAF0FF8
:020B56008F16F8
:100B58007F80120CBBE5162430FF120C737F3A120B
:100B68000C737FC0120CBBE4F517E516C454F024CF
:100B7800FEF582E434FFF583E5822517F582E43536
:100B880083F583E493FF120C730517E517C39410DC
:020B980040D843
:010B9A002238
:100A920020B263120C3E20B25DC28CD290E50F7080
:100AA2001D750F01F50DF50ED2007F01120B5630A8
:100AB200003C120C627F59120C737F20802DB20011
:100AC200D29030000D120C627F59120C737F2012EB
:100AD2000C732000197F86120CBB7F50120C6E7FA4
:100AE20055120C737F53120C737F45120C7320B294
:100AF200052000FA80F8209328E50F6024120C3EAE
:100B020020931EE50F601AC28CD290150FE50FD309
:100B120094005003750F08120B4F7FF47E01120CE4
:100B22004220B528E50F6024120C3E20B51EE50FC9
:100B3200601AC28CD290050FE50FC3940940037569
:0D0B42000F01120B4F7FF47E01120C4222B6
:100CA600758911D2A9D2AF120C84120BE61206C3B3
:050CB600120A9280F813
:040C3E007F057E00B0
:100C4200E4FDFCC3ED9FEC9E5015E4FBFA0BBB00E8
:0F0C5200010AEB647B4A70F50DBD00010C80E4D4
:010C61002270
:020B9B008F10B9
:100B9D00E4F511E511C39510503CE4F515F514F588
:100BAD0013F512E47F647E19FDFCAB15AA14A9138D
:100BBD00A812C3120CCC501A120A92E5152401F595
:100BCD0015E43514F514E43513F513E43512F51267
:080BDD0080D1051180BDC28C1E
:010BE50022ED
:03000B00020CF6EE
:090CF600B29085098C850C8A324C
:0D0CDD0085098C850C8AD28CAF08020B9B18
:1006C300E50F6401707030006DAD0EED90008F93F7
:1006D30075F007A4FFED90008E937C002FFFEC359F
:1006E300F0CF24FFF50BEF34FFF50AFE748B250BD7
:1006F300F58274063EF583E493F50974A7250BF59B
:100703008274063EF583E493F50CE50E9000909316
:10071300F5087403250EF50EE4350DF50DC3E50A52
:1007230064809480500DE4F50DF50E750F027F0281
:10073300120B56120CDDE50F6402707030006DADC4
:100743000EED9001709375F007A4FFED90016F9388
:100753007C002FFFEC35F0CF24FFF50BEF34FFF5D2
:100763000AFE748B250BF58274063EF583E493F53C
:100773000974A7250BF58274063EF583E493F50C03
:10078300E50E90017193F5087403250EF50EE4351B
:100793000DF50DC3E50A64809480500DE4F50DF565
:1007A3000E750F037F03120B56120CDDE50F640366
:1007B3006003020843200003020843742A250EF550
:1007C300827402350DF583E49375F007A4FF742951
:1007D300250EF5827402350DF583E4937C002FFF1B
:1007E300EC35F0CF24FFF50BEF34FFF50AFE748BE5
:1007F300250BF58274063EF583E493F50974A7256A
:100803000BF58274063EF583E493F50C742B250EE9
:10081300F5827402350DF583E493F5087403250E10
:10082300F50EE4350DF50DC3E50A64809480500D93
:10083300E4F50DF50E750F047F04120B56120CDD53
:10084300E50F6404707030006DAD0EED90034193BD
:1008530075F007A4FFED900340937C002FFFEC3568
:10086300F0CF24FFF50BEF34FFF50AFE748B250B55
:10087300F58274063EF583E493F50974A7250BF519
:100883008274063EF583E493F50CE50E90034293E0
:10089300F5087403250EF50EE4350DF50DC3E50AD1
:1008A30064809480500DE4F50DF50E750F057F05FA
:1008B300120B56120CDDE50F6405707030006DAD40
:1008C3000EED9003A79375F007A4FFED9003A69395
:1008D3007C002FFFEC35F0CF24FFF50BEF34FFF551
:1008E3000AFE748B250BF58274063EF583E493F5BB
:1008F3000974A7250BF58274063EF583E493F50C82
:10090300E50E9003A893F5087403250EF50EE43560
:100913000DF50DC3E50A64809480500DE4F50DF5E3
:100923000E750F067F06120B56120CDDE50F6406DB
:10093300707030006DAD0EED9004229375F007A436
:10094300FFED900421937C002FFFEC35F0CF24FFC3
:10095300F50BEF34FFF50AFE748B250BF582740655
:100963003EF583E493F50974A7250BF58274063EDF
:10097300F583E493F50CE50E90042393F5087403D3
:10098300250EF50EE4350DF50DC3E50A648094805C
:10099300500DE4F50DF50E750F077F07120B561278
:1009A3000CDDE50F6407707030006DAD0EED900542
:1009B3000C9375F007A4FFED90050B937C002FFFBC
:1009C300EC35F0CF24FFF50BEF34FFF50AFE748B03
:1009D300250BF58274063EF583E493F50974A72588
:1009E3000BF58274063EF583E493F50CE50E900552
:1009F3000D93F5087403250EF50EE4350DF50DC3BF
:100A0300E50A64809480500DE4F50DF50E750F082A
:100A13007F08120B56120CDDE50F6408707030006E
:100A23006DAD0EED9005BD9375F007A4FFED900538
:100A3300BC937C002FFFEC35F0CF24FFF50BEF3494
:100A4300FFF50AFE748B250BF58274063EF583E4ED
:100A530093F50974A7250BF58274063EF583E49399
:100A6300F50CE50E9005BE93F5087403250EF50EFF
:100A7300E4350DF50DC3E50A64809480500DE4F56B
:0F0A83000DF50E750F017F01120B56120CDD22BF
:03000000020CEA05
:0C0CEA00787FE4F6D8FD758120020CA68E
:100CCC00EB9FF5F0EA9E42F0E99D42F0E89C45F07E
:010CDC0022F5
:00000001FF
