:03000000020006F5
:0C000600787FE4F6D8FD75810B02004DF8
:0A013F00010A00010B00020803E8AA
:1000EB00AA06AB07D3EB9400EA94004015E4FCFDA1
:1000FB000DBD00010CED647B4C70F5EB1B70E51A2C
:02010B0080E290
:01010D0022CF
:10009200D288758901D2AFD2A9C28CD2A8C2B520AA
:1000A2009421C3E50994F0E5089455500D740A258E
:1000B20009F509E43508F50880067508557509F053
:1000C2003094FD2090D9D3E509940AE508940040C4
:1000D2000E74F62509F50974FF3508F5088005E464
:0900E200F508F5092090B880FB37
:10012D00D3EF9400EE9400400800EF1F70F21E8094
:02013D00EF22AF
:0300030002010EE9
:10010E00C0E0C0D075D000C006C007D2B5AF09AEF2
:0F011E000812012DC2B5D007D006D0D0D0E032E4
:10001200020092E493A3F8E493A34003F68001F272
:1000220008DFF48029E493A3F85407240CC8C333EF
:10003200C4540F4420C8834004F456800146F6DFBE
:10004200E4800B010204081020408090013FE47E0E
:10005200019360BCA3FF543F30E509541FFEE493B3
:10006200A360010ECF54C025E060A840B8E493A37A
:10007200FAE493A3F8E493A3C8C582C8CAC583CAA5
:10008200F0A3C8C582C8CAC583CADFE9DEE780BE5D
:0101490000B5
:00000001FF
