:10093A0054656D70657261747572653A2020204342
:10094A000044697374616E63653A20203030304325
:10095A004D0020204D61782D2D2D2D2D2D2020206C
:10096A00434D0020204D696E2D2D2D2D2D2D20203B
:04097A0020434D00C9
:1009E70001090001080001180002140000041000AA
:1009F70000000002190000010F00020D01EA020BBE
:0C0A0700001E011B00010A000216000086
:030B1500C2902269
:030B1800D2902256
:030AF200120B15CF
:0C0AF500E4FFE4FE0EBEC8FC0FBFC8F614
:010B010022D1
:1005CD00209116120AF23091FD120B18050FE50F4E
:1005DD00B40303E4F50F020671209241120AF230C2
:1005ED0092FD120B18E50FB40115050EE50E700204
:1005FD00050D64C9450D7023F50D750EC8801CE5FC
:10060D000FB40217050CE50C7002050BD3950EE522
:10061D000B950D4006850D0B850E0C8047209347DD
:10062D00120B15120AF53093FD120B18E50FB401DC
:10063D001BE50E150E7002150DC3E50E950CE50D9F
:10064D00950B5020850B0D850C0E8018E50FB4020F
:10065D0013E50C150C7002150BE50CF4450B70042D
:08066D00F50BF50C751B0122D1
:0F09BA008F807F057E001209C9D2A67F057E00BF
:1009C900D3EF9400EE940040147D0A7C00ED1D7075
:0D09D900011CED4C70F7EF1F70E61E80E36F
:0109E60022EE
:0F0ADB00120AEA7F06120AEA7F01120AEA7F80F6
:080AEA00C2A71209BAC2A6223C
:100A74007C007D0A12036B7C007D0A12036BED245B
:020A840030FF41
:080A8600D2A71209BAC2A62290
:10097E00E4FB7F38120AEA7F0C120ADBEB90093A8D
:10098E0093FF120A860BBB0EF37FDF120A869009C5
:10099E0048E493FF120A867FC0120AEAE4FBEB904A
:0B09AE00094B93FF120A860BBB10F3ED
:0109B900221B
:10078200AB05AA04A9077F8C120AEAE975F00A846C
:100792002430FF120A86E975F00A84E5F02430FF5E
:1007A200120A86E518640170387FCA120AEA7F20AD
:1007B200120A867C007D64AF03AE0212036BEF2443
:1007C20030FF120A867C007D0AAF03AE02120A785D
:1007D200AE02AF037C007D0A12036BED2430FF8072
:1007E2001AE51870197FCA120AEA7F2D120A867F4B
:0F07F2002D120A867F2D120A867F2D120A86226B
:10080100E4FB7F38120AEA7F0F120ADBEB90095CE6
:1008110093FF120A860BBB10F37FC0120AEAE4FBB6
:10082100EB90096D93FF120A860BBB10F37F8B12BD
:100831000AEAAE0DAF0E7C007D6412036BEF24302B
:10084100FF120A86AE0DAF0E120A74AE0DAF0E1274
:100851000A7B7FCB120AEAAE0BAF0C7C007D6412DF
:10086100036BEF2430FF120A86AE0BAF0C120A7431
:0C087100AE0BAF0C120A7B7F8D020AEA6E
:0F0B0200C2A0758901E4F58CF58AD2A9D2AF2281
:100A8E00D2A00000000000000000000000000000E6
:0A0A9E0000000000000000C2A022CA
:1003DF008F1CE51CC3941E4016E509B40111AC1423
:1003EF00AD15E41202B17BEC7A5179480204DDE5D8
:1003FF001CC39414401CE51C941E5016E509B4014F
:10040F0011AC14AD15E41202B17BF67A28794C02C7
:10041F0004DDE51CC3940A401BE51C94145015E53C
:10042F0009B40110AC14AD15E41202B1E4FBFA7972
:10043F00500204DDE51CC39400401BE51C940A50D8
:10044F0015E509B40110AC14AD15E41202B17B52DD
:10045F007AB8794E8078E51CD3940A5019E51C942C
:10046F00004013E509700FAC14AD151202B17BEC0F
:10047F007A5179588058E51CD394145019E51C947F
:10048F000A4013E509700FAC14AD151202B17B8F42
:10049F007AC279558038E51CD3941E5019E51C9407
:1004AF00144013E509700FAC14AD151202B17B297E
:1004BF007A5C795F8018E51CD3941E402BE5097098
:1004CF0027AC14AD151202B17B3D7A0A79777840CB
:1004DF00120106E4FBFA7948784312020F1202EA7E
:0904EF008F138E128D118C102266
:10087D00AD07AF8CEFFEAC8AEC7A002400F515EADB
:10088D003EF514E4F58CF58AAF051203DFE47FF431
:10089D007E01FDFCAB13AA12A911A810D31203CE31
:1008AD005005E508B40113E4F508F518F513F51234
:1008BD00F511F510750A01020B15E47FF47E01FDAB
:1008CD00FCAB13AA12A911A810D31203CE500975AF
:0908DD001801750A01120B182222
:100AC200EF4E60147DC87C00ED1D70011CED4C7072
:080AD200F7EF1F70EB1E80E836
:010ADA0022F9
:100A3800C2947F677E00EF1F70011EEF4E70F7D2E1
:0E0A4800947E007F04EF1F70011EEF4E70F7CA
:010A5600227D
:100A1400C2940FBF0000D2940FBF00000FBF0000AC
:100A2400A29492007E007F08EF1F70011EEF4E70AB
:030A3400F7A20026
:010A3700229C
:100A5700E4FD7C01120A14E433FFC43333335480BA
:0C0A6700FEEDC3134EFD0CBC09EAAF0508
:010A73002260
:0C08E600120A387F017E00120AC27FCC8B
:1008F2007E01EF139200EFC313FF30001BC2940B73
:10090200BB00000BBB0000D2947A007B08EB1B708B
:10091200011AEB4A70F7801BC2947A007B08EB1B2A
:1009220070011AEB4A70F7D2940BBB00010A0BBBA1
:0709320000010A0EBE09BB23
:01093900229B
:080003001208E67F440208F236
:10070100E4F51FF51EF51DF51CFBFD1208E67FBE85
:100711001208F2120A57AB07120A57AD07ED751608
:1007210000F517751700F516AF03EF4217BDFF145B
:10073100750901E517F4FFE516F4FEEF2401F5173D
:10074100E43EF516AC16AD17E41202B1E4FBFA79FA
:1007510080783D1201068F1F8E1E8D1D8C1CE4FFBB
:10076100FE7D207C41AB1FAA1EA91DA81C120106FB
:10077100E4FBFAF9783F1200151202EA8E168F1780
:010781002255
:1004F800120B0212097E1200031207018E198F1ABD
:100508001200031207018E198F1A12000312070135
:100518008E198F1A1205CDE50F706E120A8E30A152
:10052800FDD28C20A1FDC28C7F147E00120AA81275
:1005380000031207018E198F1A7C007D0A12036BC3
:1005480012087DAE0DAF0EE4FCFDAB13AA12A91183
:10055800A810D31203CE500FAE0BAF0CE4FCFDA8CD
:1005680010C31203CE5005120B158009E50A640169
:100578006003120B18AE19AF1A7C007D0A12036BC8
:10058800AC12AD13120782808BE50F608712080149
:10059800E50F602B1205CDE51BB4010CE50FB40186
:1005A800071208017F8D800FE51BB4010DE50FB41C
:1005B80002081208017FCD120AEAE4F51B80D11265
:0505C800097E02051C84
:100AA8007C64EF4E60131CEC60087D0A1DED60F657
:090AB80080FAEF1F70EC1E80E9CA
:010AC1002212
:03000B00020B11D4
:040B11007508013230
:10000E00020356E86480F8E933E83360110460F0C7
:10001E00ED33EC337009E8FCE9FDEAFEEBFF220458
:10002E0060DED3EB9FEA9EE99DE8C2E78CF0C2F753
:10003E0095F0400CE8CCF8E9CDF9EACEFAEBCFFB1F
:10004E0012032185D0F05804700320D5B3E8047054
:10005E00075002B2D502036092D5EC0460F7E4CCEF
:10006E00C0E0C398F8603B94186008400DD0E0FBE8
:10007E00020338E4FBFAC9FC8028E830E406E4C940
:10008E00FBE4CAFCE830E305E4C9CACBFCE854073C
:10009E006010F8C3E913F9EA13FAEB13FBEC13FC47
:1000AE00D8F130F52FC3E49CFCEF9BFFEE9AFEEDEA
:1000BE0099FDD0E0FBEF4E4D4C701222DB03020394
:1000CE005DEC2CFCEF33FFEE33FEED33FDED30E750
:1000DE00EB020338EF2BFFEE3AFEED39FDD0E0FBDD
:1000EE0050130BBB0003020360ED13FDEE13FEEF86
:0800FE0013FFEC13FC020338B0
:10010600EC4D6011E8497017ED33EC3304600DE4F3
:10011600FCFFFEFD22E933E8330470F802035612B1
:10012600032158046009E4CC2481500628500902B2
:10013600036028400302035DC0E0EB4A7044B980C7
:1001460006D0E0FB02034CEF4E701CBD8008EBFFAF
:10015600EAFEE9FD80EBE98DF0A4FEE5F00201EF91
:10016600E9CDF9EAFEEBFFEF89F0A4FCE5F0CE89D4
:10017600F0A42EFFE435F0CD89F0A42DFEE435F091
:100186008067EF4E7005BD80D780C3EF8BF0A4ACBF
:10019600F0EE8BF0A42CFCE435F0F8EF8AF0A42CFA
:1001A600E5F038FCE433CB8DF0A42CFCE5F03BF80D
:1001B600EE8AF0A42CFCE5F038F8E433CF89F0A4FD
:1001C6002CFCE5F038CF3400CE89F0A42FFFE5F003
:1001D6003EFEE433C98DF0A42EFEE5F039CD8AF05B
:1001E600A42FFFE5F03EFEE43DFD33D0E0FB5007D3
:1001F6000BBB000F020360EC2CFCEF33FFEE33FE6B
:06020600ED33FD02033898
:10020C00020360EC5D046005E859047003020356B8
:10021C00120321580460F6EC4860F2EC7004FDFE09
:10022C00FF22C860DB2481C85009C39860025006C5
:10023C0002035D9850CAF582E9294B4A7005AB82DE
:10024C0002034C75F0007C1A7880C3EF9BEE9AED9C
:10025C0099400DC3EF9BFFEE9AFEED99FDE842F03D
:10026C00DC23ACF0D0E0FFD0E0FED0E0FDAB822090
:10027C00E7101BEB60BAEC2CFCEF33FFEE33FEED1A
:10028C0033FD020338E803F830E705C0F075F000E1
:10029C00EF2FFFEE33FEED33FD40B830E7C280AAFE
:1002AC0075F020800E75F010800575F0087D007ECD
:1002BC00007F003392D530D5031203C0EC334010CD
:1002CC00EF33FFEE33FEED33FDEC33FCD5F0ED22D6
:0E02DC00E5F0247EA2D513CC92E7CDCEFF2212
:1002EA00EDD2E7CD33EC3392D524814006E4FFFE0C
:1002FA00FDFC22FCE4CFCECDCC24E0501174FF806B
:10030A00EDC3CC13CCCD13CDCE13CECF13CF047007
:07031A00F030D5DE0203C044
:10032100E9D2E7C933E833F892D5EDD2E7CD33EC22
:0703310033FC5002B2D5229B
:10033800EC30E7100FBF000C0EBE00080DBD000426
:100348000BEB6014A2D5EB13FCED92E7FD2274FFD2
:10035800FCFDFEFF22E480F8A2D574FF13FC7D802B
:03036800E480EF3F
:0300000002067580
:0C067500787FE4F6D8FD7581200206BCF9
:10036B00BC000BBE0029EF8DF084FFADF022E4CC76
:10037B00F875F008EF2FFFEE33FEEC33FCEE9DEC3F
:10038B00984005FCEE9DFE0FD5F0E9E4CEFD22ED85
:10039B00F8F5F0EE8420D21CFEADF075F008EF2FCF
:1003AB00FFED33FD4007985006D5F0F222C398FDC0
:0503BB000FD5F0EA225D
:0E03C000C3E49FFFE49EFEE49DFDE49CFC224E
:1003CE00EB9FF5F0EA9E42F0E99D42F0E89C45F085
:0103DE0022FC
:100681000204F8E493A3F8E493A34003F68001F293
:1006910008DFF48029E493A3F85407240CC8C3337A
:1006A100C4540F4420C8834004F456800146F6DF49
:1006B100E4800B01020408102040809009E7E47EE9
:1006C100019360BCA3FF543F30E509541FFEE4933E
:1006D100A360010ECF54C025E060A840B8E493A305
:1006E100FAE493A3F8E493A3C8C582C8CAC583CA30
:1006F100F0A3C8C582C8CAC583CADFE9DEE780BEE8
:010A130000E2
:00000001FF
