:0A0000000216C1AD077F02020A508C
:10000B000207AA1202E3FF600C121DFB740129F90F
:06001B00E43AFA80EE2237
:1000230002183A0202CEE86480F8E933E83360113B
:100033000460F0ED33EC337009E8FCE9FDEAFEEB14
:10004300FF220460DED3EB9FEA9EE99DE8C2E78CC2
:10005300F0C2F795F0400CE8CCF8E9CDF9EACEFA16
:10006300EBCFFB12029985D0F05804700320D5B36F
:10007300E80470075002B2D50202D892D5EC0460AE
:10008300F7E4CCC0E0C398F8603B94186008400DD7
:10009300D0E0FB0202B0E4FBFAC9FC8028E830E4BC
:1000A30006E4C9FBE4CAFCE830E305E4C9CACBFCB7
:1000B300E854076010F8C3E913F9EA13FAEB13FBEA
:1000C300EC13FCD8F130F52FC3E49CFCEF9BFFEE5F
:1000D3009AFEED99FDD0E0FBEF4E4D4C701222DB02
:1000E300030202D5EC2CFCEF33FFEE33FEED33FDC0
:1000F300ED30E7EB0202B0EF2BFFEE3AFEED39FDF8
:10010300D0E0FB50130BBB00030202D8ED13FDEE4E
:1001130013FEEF13FFEC13FC0202B0EC4D6011E889
:10012300497017ED33EC3304600DE4FCFFFEFD2250
:10013300E933E8330470F80202CE120299580460DE
:1001430009E4CC248150062850090202D828400330
:100153000202D5C0E0EB4A7044B98006D0E0FB024E
:1001630002C4EF4E701CBD8008EBFFEAFEE9FD8080
:10017300EBE98DF0A4FEE5F0020207E9CDF9EAFE12
:10018300EBFFEF89F0A4FCE5F0CE89F0A42EFFE4A9
:1001930035F0CD89F0A42DFEE435F08067EF4E7085
:1001A30005BD80D780C3EF8BF0A4ACF0EE8BF0A439
:1001B3002CFCE435F0F8EF8AF0A42CE5F038FCE4ED
:1001C30033CB8DF0A42CFCE5F03BF8EE8AF0A42CA5
:1001D300FCE5F038F8E433CF89F0A42CFCE5F038E3
:1001E300CF3400CE89F0A42FFFE5F03EFEE433C9FF
:1001F3008DF0A42EFEE5F039CD8AF0A42FFFE5F0B3
:100203003EFEE43DFD33D0E0FB50070BBB000F0285
:1002130002D8EC2CFCEF33FFEE33FEED33FD02028C
:10022300B075F020800E75F010800575F0087D0024
:100233007E007F003392D530D5031203D8EC3340D0
:1002430010EF33FFEE33FEED33FDEC33FCD5F0ED71
:1002530022E5F0247EA2D513CC92E7CDCEFF22ED8A
:10026300D2E7CD33EC3392D524814006E4FFFEFD83
:10027300FC22FCE4CFCECDCC24E0501174FF80ED02
:10028300C3CC13CCCD13CDCE13CECF13CF0470F08C
:1002930030D5DE0203D8E9D2E7C933E833F892D583
:1002A300EDD2E7CD33EC33FC5002B2D522EC30E78C
:1002B300100FBF000C0EBE00080DBD00040BEB6059
:1002C30014A2D5EB13FCED92E7FD2274FFFCFDFEB7
:1002D300FF22E480F8A2D574FF13FC7D80E480EF55
:1002E300BB010689828A83E0225002E722BBFE0219
:1002F300E32289828A83E49322BB010CE58229F5F8
:1003030082E5833AF583E0225006E92582F8E62266
:10031300BBFE06E92582F8E222E58229F582E58320
:100323003AF583E49322BB010689828A83F0225043
:1003330002F722BBFE01F322EF8DF0A4A8F0CF8CCD
:10034300F0A428CE8DF0A42EFE22BC000BBE002903
:10035300EF8DF084FFADF022E4CCF875F008EF2FB9
:10036300FFEE33FEEC33FCEE9DEC984005FCEE9D76
:10037300FE0FD5F0E9E4CEFD22EDF8F5F0EE842092
:10038300D21CFEADF075F008EF2FFFED33FD4007F3
:10039300985006D5F0F222C398FD0FD5F0EA22C299
:1003A300D5EC30E709B2D5E4C39DFDE49CFCEE3007
:1003B300E715B2D5E4C39FFFE49EFE12034DC3E4E9
:1003C3009DFDE49CFC800312034D30D507C3E49FDD
:1003D300FFE49EFE22C3E49FFFE49EFEE49DFDE452
:1003E3009CFC22121B9F7A2079851207307A207990
:1003F3009775480C7D04E4FF121B5B7A20799C12ED
:1004030011D67F41121B5B900052E060030205246A
:1004130090004AE0640170097A2079A11211868064
:100423001F90004AE064027BFF700B7A2079AC7561
:10043300480C7D06800A7A2079B775480C7D06E45E
:10044300FF121B5B900023E0705312077F600302CF
:100453000514D3900050E090004F12113440051260
:1004630006A480061206B912114B12101B120706BE
:100473007A2079C212079A12112C400512076A805A
:10048300031206D512101B7D047F281217D01211F8
:100493008E40051206F1806F12074E806A12077FA5
:1004A300706FF53E90004F12102D12114BD3940034
:1004B300EE6480948040051206A480061206B912E9
:1004C300114B12101B1207067A2079C412079A9057
:1004D300004D12102DEE12112490004B12102DEE30
:1004E30012117112112C400512076A80031206D5EE
:1004F30012101B7D047F281217D012118E40051293
:1005030006F1800312074E12101B7D047F69121738
:10051300D01211DE7F32121B5B7FC812000302046C
:100523000A121B9F7A2079C61207307A2079CB757D
:10053300480C7D047F10121B5B7A2079D01211D6F0
:100543007F48121B5B7A2079D51211867F10121B0C
:100553005B7BFF7A2079D875480C7D067F480206BD
:1005630084900052E0640160030203E61211DE7F0F
:1005730038121B5B7BFF7A2079DB75480C7D047F87
:1005830004121B5B7BFF7A2079DD75480C7D067FA7
:1005930004121B5B12107A1211FF4012754F0C7B71
:1005A3002B12079212107AE0FEA3E0FF800E754F24
:1005B3000C7B2D12079212107A1211CA12101B7D96
:1005C300067F281217D012108A1211FF4016754F9A
:1005D3000C7B2B7D067F5812194F12108AE0FEA365
:1005E300E0FF8012754F0C7B2D7D067F5812194F4B
:1005F30012108A1211CA12101B7D067F601217D0C7
:10060300E50EC313FB7A0075470175480CE4FD7FC3
:10061300281217D0741012119E7F311217D0741143
:1006230012119E7F691217D07F9612000312109A3F
:10063300EF64034E6006EF64064E70091210567A9B
:100643002079DF801F12109AEF64074E6006EF6473
:10065300084E70091210567A2079E180071210565D
:100663007A2079E675480C121B5B7F961200039083
:100673000049E070127BFF7A2079E975480CFD7F11
:1006830067121B5B0205641210E160030205647BC1
:10069300FF7A2079ED75480CFD7F67121B5B02051D
:1006A30064754F0C7B2BE4FD7F3412194F90004F80
:1006B300E0FEA3E0FF22754F0C7B2DE4FD7F341297
:1006C300194F90004FE0FEA3E0FF7CFF7DFF120374
:1006D3003B22754F0C7B2D7D047F2012194F900018
:1006E3004DE0FEA3E0FFC3E49FFFE49EFE22754FAF
:1006F3000C7B2B7D047F6112194F90004BE0FEA30E
:10070300E0FF22E4FD7F3C1217D090004FE0FEA3F0
:10071300E0FF7C007D641203A2AA04AB05754702C7
:1007230075480CE4FD7F5E1217D07BFF227BFF75BB
:10073300480CE4FDFF121B5B7BFF7A20799175481F
:100743000C7D02E4FF121B5B7BFF22754F0C7B2D9C
:100753007D047F6112194F90004BE0FEA3E0FFC3BD
:10076300E49FFFE49EFE22754F0C7B2B7D047F20CC
:1007730012194F90004DE0FEA3E0FF227D0A7F0394
:10078300120A508F3EEF3395E0FEEF64044E227D54
:10079300067F2012194F2275480CE4FD7F76121B49
:1007A3005B22C2AF80FE321207A985D00B75D00839
:1007B300AAE0C28CE58A241FF58AE58C34FCF58C0B
:1007C300D28CEC247AF8E6BC070274FFC39581B49B
:1007D300140040CE7908786916E608700BC2AFE6BC
:1007E30030E1034418F6D2AF08D9EDEA8BD03007D5
:1007F3000122D50DFCC0E0C0D0C0F0C083C082C0D0
:1008030000C001C002C003C004C005C006C007E5A4
:100813000C23246AF87440C2AF46F6D2AFD207E580
:100823000CFF23246AF80F0808BF08047F00786AC6
:10083300E630E4F200E50CC39F5020050C747925E3
:100843000CF8E6FDA68108E6AE0CBE070274FFCDE8
:10085300F8E86D60E008E6C0E080F6E50CD39F4061
:1008630027E50C247AF8E6AE0CBE070274FFFD18E8
:10087300E6CDF8E5816D6006D0E0F61880F5E50C6D
:100883002479C8F6150C80D3750D64E50C23246A0E
:10089300F87F04C2AFE610E61E30E00310E20C7FDF
:1008A3000030E10730E3047F0854F4547CC6D2AF30
:1008B30054804207C20722F6D2AFD007D006D00534
:1008C300D004D003D002D001D000D082D083D0F0A6
:1008D300D0D0D0E0C207227879A68174076006FFE2
:1008E3000876FFDFFB7F08E47869F608F608DFFA8D
:1008F300786A7630901DCD740193C0E0E493C0E034
:10090300750D64438901758A18758CFCD28CD2AF3E
:10091300D2A92207EFD3940740037FFF22746A2FE3
:100923002FF8E620E5F4C2AFE64430F6D2AFAE0CC2
:10093300EEC39F50210E74792EF8E6F908E618BE2F
:10094300070274FFFDED69600909E71919F7090941
:1009530080F3161680DAEED39F400405810581EEFD
:10096300D39F402274792EF808E6F9EEB50C02A95C
:1009730081180606E6FDED6960091919E70909F70B
:100983001980F31E80D9EF2479F8E604F8EF2F04D9
:10099300901DCD93F608EF2F93F67F0022EFD394AB
:1009A3000740037FFF22EF23246AF8E630E5F4C211
:1009B300AFE6548CF6D2AFE50CB5070A74792FF87D
:1009C300E6F581020820502E747A2FF8E6BF07025D
:1009D30074FFFD18E6F974792FF8FBE6FCE96C6007
:1009E30008A805E7F61D1980F4A803A6051FE50C62
:1009F300B507E37F0022747A2FF8E6FD1886010F0E
:100A030074792FF8A601088604E50CB50702AC81BA
:100A1300ED6C60080D09A805E6F780F4E50CB50751
:100A2300DE89817F0022EFD3940740037FFF22EF0B
:100A330023246AF8C2AFE630E50530E002D2E4D2FF
:100A4300E2C6D2AF7F0030E2010F0207F48FF0E479
:100A5300FFFEE50C232469F8C2A930F70D7F08E6F1
:100A6300600B2DF660325030800730F106EDF660F2
:100A7300277E020830F010C2AFE610E7250E30E201
:100A83000CD2AF7F048014C2AFE610E71554EC4ECE
:100A9300F6D2AFD2A90208207F0808EF4483F4C23C
:100AA300AF56C6D2AFD2A954804FFF22E4F53B1212
:100AB30016358F0F7E00EF640B7012900052E07DAD
:100AC3000070027D01900052EDF0020D50EF640CB6
:100AD3004E700D900049E004F0E05401F0020D5017
:100AE300AF0F7E00EF640D70391210E160139000B8
:100AF30008E01211AE5003020D50E024FDF0020D88
:100B030050900008E0FD3395E0FCED64074C60096C
:100B1300ED64084C6003020D509000107401F00264
:100B23000D50EF640E4E704D900052E0700F900028
:100B330023E07F0070027F01900023EFF01210E1A9
:100B4300601812109AD3EF9405EE648094804003EA
:100B5300020D50E02403F0020D5012109AEF6407C7
:100B63004E6009EF64084E6003020D50900010744C
:100B7300FFF0020D50AF0F7E00EF640F70221210D2
:100B8300E17003020D50900008E014F0E03395E0AB
:100B9300C3648094804003020D507408F0020D502A
:100BA300EF64104E70241210E17003020D50900098
:100BB30008E004F012109DD3EF9408EE6480948053
:100BC3005003020D50E4F0020D50E50F6401701F55
:100BD3001210E1703EF53B1210A450371210E8706A
:100BE3000A7417253BF87601020D4B053B80E8E5B7
:100BF3000F640270211210E17019F53B1210A4501A
:100C0300121210E870097417253BF8760280040568
:100C13003B80E9020D4BE50F640370211210E17074
:100C230019F53B1210A450121210E870097417251D
:100C33003BF876038004053B80E9020D4BE50F6426
:100C43000470211210E17019F53B1210A450121216
:100C530010E870097417253BF876048004053B807F
:100C6300E9020D4BE50F640570211210E17019F5CF
:100C73003B1210A450121210E870097417253BF8A8
:100C830076058004053B80E9020D4BE50F64067091
:100C9300211210E17019F53B1210A450121210E842
:100CA30070097417253BF876068004053B80E9023A
:100CB3000D4BE50F640770201210E17019F53B121C
:100CC30010A450121210E870097417253BF8760728
:100CD3008004053B80E98070E50F640870201210E2
:100CE300E17019F53B1210A450121210E870097448
:100CF30017253BF876088004053B80E9804AE50F19
:100D0300640970201210E17019F53B1210A45012FF
:100D13001210E870097417253BF876098004053B27
:100D230080E98024E50F640A70231210E17019F53D
:100D33003B1210A450121210E870097417253BF8E7
:100D4300E4F68004053B80E97F07120A297F32120B
:100D53000003020AB2E516548064806003020FB1F7
:100D6300F51690002BE064476003020E40A3E0B445
:100D730053097B017A00795312000E90002CE06432
:100D8300546003020E0990004FE0FAA3E0FB7C27B6
:100D93007D10FFAE0212117F900064F07C277D105E
:100DA300AF03AE021203A27E037FE8121179A3F010
:100DB30090004FA3E07C037DE8FFAE021203A27E06
:100DC300007F64121179900066F07C007D64AF03AC
:100DD300AE021203A21211EA900068F090004FE0F5
:100DE300FEA3E0FF1211EA900069F0900067742EF1
:100DF300F090006A7443F0A3740AF0E4F07B017A84
:100E030000796412000E90002CE0645A702F900059
:100E130051E070087BFF7A20796A801E900051E0D0
:100E2300640170087BFF7A207973800E900051E093
:100E3300640270097BFF7A20797C12000E90002BEC
:100E4300E064536003020FB1A3E06454703C90006C
:100E53002E1211BD90002DF07B017A00792D756261
:100E6300067F04121DEC90002D120FC79000311263
:100E730011BD900030F07B017A0079307562017FFB
:100E830003121DEC900030120FC790002CE0644455
:100E9300705990002E1210F1F5109000311210F1DC
:100EA300F5119000341210F1F5129000371210F181
:100EB300F51390003A1210F1F51490003D1210F161
:100EC300F515E490006DF090006DE0C39406748016
:100ED30094805017E0FF2410F8E6FD121D167FFAE8
:100EE30012000390006DE004F080DC90002CE064BD
:100EF300536003020FB190002EE0F9642B700712C8
:100F03000FDE7D64800CE9642D7016120FDE7CFF0A
:100F13007D9C12033B900038E0121154EEF0A3EFD6
:100F2300F0900033E0F9642B70121210FD7D64120F
:100F3300033B9000361210077D64801DE9642D7019
:100F4300271210FD7D6412033BEF2BFFEE3AFE9058
:100F5300003612100D7CFF7D9C12033B900038E09D
:100F6300121160EEF0A3EFF0900038E0FF1211547D
:100F7300A3E0FDEF25E024A6120FB9FC121154E003
:100F8300FFAD07EC25E024A7120FB9FF121160A3F0
:100F9300E0FDEF25E024AC120FD4900038E0FC1202
:100FA3001160E0FFAD07EC25E024AD120FD47FC83C
:100FB300120003020D58FF121D167F6412000390E6
:100FC3000038E022E4F07FC81200037FC812000358
:100FD30022FF121D167F6412000322900030E024CA
:100FE300D0FFE434FFFE7C007D0A12033BAA06AB6C
:100FF3000790002FE024D0FFE434FFFE7D6412034A
:101003003B900031EF2BFFEE3AFEE024D0FDEC34B1
:10101300FFCD2FFFED3EFE227C007D641203A2AACA
:1010230006AB0775470375480C22E0FCA3E0FDEC13
:101033001202297B667A6679E6783F12011EE4FB89
:10104300FA7948784512002D8F428E418D408C3FAE
:10105300020262900008E0FD3395E0FC74112DF567
:101063008274003CF583E0FF741A2DF58274003C12
:10107300F583E0FD7BFF22E50EC31325E02400F595
:1010830082E43400F58322E50EC31325E0245CF5E6
:1010930082E43400F58322900008E0FF3395E0FEFC
:1010A30022C3E53B94037480948022E51875F00A0B
:1010B300A4FBAAF0E51775F064A42BFFE5F03ACF83
:1010C3002DCF3400FE7C007D6412033B900010E0C2
:1010D300FD3395E0FC12033BE50EC313FD229000A4
:1010E30049E06401227417253BF8E6642822E07581
:1010F300F00AA4FFA3E02F24F022900035E024D0CF
:10110300FFE434FFFE7C007D0A12033BAA06AB0713
:10111300900034E024D0FFE434FFFE22E0FFA3E09C
:10112300CF90004DF0A3EFF022D390004EE090005B
:101133004D9400E06480948022FDC4540F2430F069
:10114300ED540F2430A3F02290004FEEF0A3EFF004
:101153002225E024A0F582E434FFF5832225E02450
:10116300FCF582E434FFF58322E0FFA3E0CF900097
:101173004BF0A3EFF022CFCDCFCECCCE1203A2EF14
:101183002430227BFF75480C7D0622D390004CE06F
:10119300940090004BE06480948022250EF8E6FBD7
:1011A3007A0075470275480C7D0422FD3395E0FCF7
:1011B300C3ED9403EC6480948022E024D0C454F003
:1011C300FFA3E024D02F22E0FEA3E0FF7CFF7DFFFE
:1011D30002033B7BFF75480C7D04227B017A007977
:1011E3005375480C7D02227C007D0A1203A2ED2474
:1011F3003022C3E52194057480948022E0FEA3C3CA
:10120300EE64809480229FEE6480F8EC64809822E0
:10121300E51775F00AA42518FF22900049E0701025
:10122300FFEF1211AE500974172FF876280F80F1D3
:101233007DFA7F03120A501210E170DEEF3395E05E
:10124300FEEF64044E600302138512109AD3EF94E9
:1012530002EE648094805049E518642870030213F9
:1012630085E517C454F02518FDE0FCC374029FFB09
:10127300E49EFA74242BF58274003AF583EDF0C3EF
:1012830074049CFF74242BF974003AFA7B01756291
:1012930007121DECE4900049F07FE81200030213EB
:1012A3008512109AEF64044E7026E51864287003C3
:1012B3000213851212137410250EF8A60774102555
:1012C3000EF8E6FDAF0E121D167FC8120003802A2A
:1012D30012109AEF64054E7025E518642870030216
:1012E30013851212137411250EF8A607E50E04FFD9
:1012F3007411250EF8E6FD121D167FC8807C1210AE
:101303009AEF64074E7033E519FD64286074121078
:10131300AE12107EEEF0A3EFF0ED12107EA3E0FD0F
:10132300E50E24061213C512000312107AE0FFAD76
:1013330007E50E24071213C5804012109AEF6408C4
:101343004E703FE519FD642860381210AE12108EFE
:10135300EEF0A3EFF0ED12108EA3E0FDE50E240CEA
:10136300FF121D167F6412000312108AE0FFAD07FF
:10137300E50E240DFF121D167F64120003E4900096
:1013830049F012109AEF64034E7017C3E50E9402EE
:10139300748094804004150E150EE4900049F00209
:1013A300121DEF64064E600302121DC3E50E940482
:1013B300748094805004050E050EE4900049F002F9
:1013C300121DFF121D167F64227D967F03120A50A1
:1013D300900052E07057EF6404705290004DE0FEAD
:1013E300A3E0FFA3E0FCA3E0FDD3121209401075B4
:1013F3005D01B280A37402F090004A14F0802E9035
:10140300004BE0FEA3E0FFC3ED1212095012755D1D
:1014130002C2809000517401F090004A04F0800DE4
:10142300E4F55DD280900051F090004AF0AF5D7E0C
:1014330000EF64017004B280800CEF64024E70040C
:10144300C2808002D28090000BE0FFC4540F75F07D
:101453000AA4FEEF540F2EF55CE510D3955C5012F1
:10146300E511C3955C400B90000012111F90005CC6
:10147300802FE512D3955C5012E513C3955C400BA6
:1014830090000212111F90005E8016E514C3955C54
:101493005015E515955C400F90000412111F900044
:1014A3006012116C0213CC90000612111F9000629F
:1014B30012116C0213CC12174D121D5FE4F521C3F8
:1014C300E5219406748094805010AF21121CDA74C5
:1014D300102521F8A607052180E5E4F5211211F571
:1014E300502DE5212407FF121CDAEF7F00FEC00612
:1014F300C007E5212406FF121CDAEFFDD0E02DFF23
:10150300D0E03400FEE52112107C12157180CEE488
:10151300F5211211F5502DE521240DFF121CDAEFF0
:101523007F00FEC006C007E521240CFF121CDAEF82
:10153300FDD0E02DFFD0E03400FEE52112108C1227
:10154300157180CE7F011209177F021209177F03DD
:101553001209177F041209177F051209177F061254
:1015630009177F07120917E4FF1209A080FEEEF0A6
:10157300A3EFF07F641200030521052122B2A0E44A
:10158300FB7D017F90121B167F141200037B007AF0
:10159300007922E4FD7F90121E07E522FE7C00E421
:1015A3002523FFEC3EFE90004FF0A3EFF07D1012D9
:1015B30003A212114BD39440EE64809486400C90A6
:1015C300004F7406F0A37440F08016D3900050E0EF
:1015D300940190004FE0648094805005E4F0A304EC
:1015E300F090004FE0FCA3E0FDEC120229E4FBFACB
:1015F300795C784112011EE4FBFA79FA78C412008F
:101603002D8F278E268D258C2412026212114B7F7B
:1016130004120A297F06120A2912162A12162A7F91
:10162300C81200030215807FC81200037FC812008E
:101633000322E4F53C75900FAF90EF640F60797F60
:101643000A120003AF90EF640F607075900FAF90B4
:10165300EF24F5601024FE60111460132407701248
:10166300753D01800D753D028008753D038003754E
:101673003D047590F0AF90EF2450600C24E0600CB3
:1016830024F0600C2470800E7404800674088002B9
:10169300740C253DF53DAF3CEF3395E0FEC3EF946D
:1016A30032EE648094805013AF90EF64F0600C7F4F
:1016B3000A120003053C80DEE4F53DAF3D22787F4E
:1016C300E4F6D8FD7581800217080208DAE493A3D3
:1016D300F8E493A34003F68001F208DFF48029E4E1
:1016E30093A3F85407240CC8C333C4540F4420C82D
:1016F300834004F456800146F6DFE4800B010204C4
:101703000810204080901899E47E019360BCA3FFE9
:10171300543F30E509541FFEE493A360010ECF54F8
:10172300C025E060A840B8E493A3FAE493A3F8E4E7
:1017330093A3C8C582C8CAC583CAF0A3C8C582C853
:10174300CAC583CADFE9DEE780BEE4FDFC7FAE12D3
:101753001ADEFF121ADE7F10121ADE7F40121ADE23
:101763007FB0121ADE7F81121ADE7FFF121ADE7F2C
:10177300A1121ADE7FA6121ADE7FA8121ADE7F3F9D
:10178300121ADE7FC8121ADE7FD3121ADEFF121A74
:10179300DE7FD5121ADE7F80121ADE7FD8121ADEA0
:1017A3007F05121ADE7FD9121ADE7FF1121ADE7F4D
:1017B300DA121ADE7F12121ADE7FDB121ADE7F3094
:1017C300FE121D9C121AD07FAFFE021D9C8F438D0B
:1017D300448A458B46E4F54BF549E549C3954750A3
:1017E30055C3E547954914FD7F0A121D47AC45AD26
:1017F30046CFCDCFCECCCE12034D7C007D0A120353
:101803004D8D4AE54B701BE54714FFE549C39F50D7
:1018130011E54A700A121AFF85484F7B20800E7526
:101823004B01121AFFE54A2430FB85484FAD4412A1
:10183300194F054980A422C0E0C083C082C0D0757F
:10184300D000C007309844C298AF99E51654807011
:101853003AE51630E60CEF640A6002802B431680EB
:101863008029EF640D7005431640801FE516543F31
:10187300242BF582E43400F583EFF00516D3E51647
:10188300941D748094804003751600D007D0D0D087
:1018930082D083D0E03241004A004100520041002F
:1018A3005100031728282842004D271042004B00FF
:1018B3000048000007D00FA01770271048005C00F5
:1018C30000FE0CF8300000410010014900113850AF
:1018D30068042F6704205849001A02020204040412
:1018E30006060641000800010E000610080C0C0E47
:1018F3000E12007B017A0079097555077F021219D0
:10190300F390000BE090005312113C90000AE0901A
:10191300005612113C900009E0FDC4540F2430908E
:101923000059121142900055743AF0900058F0E4B7
:1019330090005BF01219441219447FC8120003800F
:10194300B27FC81200037FC812000322E4F550F9E6
:10195300EB24E0F550EFD3947F748094804004E44B
:10196300FF0D0DE54F64106038121C64E4F9E9C300
:10197300940674809480502975F006E550A424429F
:10198300F582E5F0341EF583E58229F582E435839B
:10199300F583E493FF7E007D017C00121D9C09808A
:1019A300CD22AD07E4FBFAEBC39408748094805016
:1019B3001AEDC4131313540124FF9285ED25E0FDA2
:1019C300121CB6C284121CBB0B80DCD285121CBB5A
:1019D300D2843085130AEAD394C87480948040F289
:1019E300C284121CBB7F0022C284121CBB7F012253
:1019F300AD078B528A53895485555B7FA2121A3ED9
:101A03009203AB52AA53A9541202E3547F121D0648
:101A13002401121D0E547F121D062402121CFC24E5
:101A230003121CFC2404121D0E5407121D06240568
:101A3300121D0E541F120329A20322AC07121D7597
:101A4300121A8B200602C322AF05121A8B2006023C
:101A5300C322121D75EC04FF121A8B200602C32247
:101A6300E4FDE55B14FFEDC39F500D121DB6C204E8
:101A7300121D2F121DAD80EA121DB6D204121D2FA6
:101A8300121D8BD322121D75E4FEEEC394087480DD
:101A930094805020A806EF088002C333D8FC30E7B7
:101AA30004D2858002C28500D2840000000000C2F7
:101AB300840E80D60000D2850000D284000000305E
:101AC3008504C2068002D206C284000022E4FDFC23
:101AD3007F8DFE121D9C7F14E4FDFCFE121D9CE411
:101AE300FDFC22E9FF7E00C394087480948022AC3D
:101AF30007121E327F78121C90021DC8E548C313DB
:101B03008549F0A42543FF22EF24B0FFEE33FEE422
:101B1300FDFC22EBF58275830070057528C18025D5
:101B2300E5826401458370057528D18018E58264D8
:101B330002458370057528E1800BE58264034583C4
:101B430070037528F1E4F529FB7A0079287568029A
:101B5300121BD69200A200228F438D448B458A46E6
:101B63008947E4F549AB45AA46A947854982758368
:101B7300001202FCFB602485484FAD44AF431219A9
:101B83004F74082543F543D39478748094804007B9
:101B9300E4F54305440544054980CA22E4F9121AD1
:101BA300E6502F121B0B121ADFFF121ADE7F10FEF4
:101BB300121D9CE4F543C3E54394807480948050E4
:101BC3000E7D017C00E4FFFE121D9C054380E709A6
:101BD30080CC22AE07121A88200602C322AF051258
:101BE3001A8B200602C322E4FDEDC395685011123F
:101BF30002E3FF121A8B200602C322121DAD80E9F5
:101C0300121D8BD322E4FDFCD285121CBBEDC394C1
:101C13000874809480501AD284121CBBEC25E0FC1B
:101C2300A285E4334204121CBBC284121CBB0D8088
:101C3300DCAF0422E4FFD285FEEEC39408748094E3
:101C430080501900C2840000000000D2840000EF1D
:101C530025E0FF3085010F00000E80DDC284000007
:101C630022A907ED24B0FFE433FEE4FDFC121D9C22
:101C7300E954F0C4540F7E004410FFE4FDFC121D30
:101C83009CE9540FFF7E00E4FDFC021D9CC284E42A
:101C9300FEEE121AEA501BAD07530580ED64807007
:101CA30004D2858002C285EF25E0FFD284C2840E70
:101CB30080DF22121CBBD2847F01EFD39400748097
:101CC300948040127E02EED394007480948040038B
:101CD3001E80F31F80E422AC07121DDD7FA01219C2
:101CE300A5AF041219A5121DDD7FA11219A5121C9F
:101CF30008AD07121E28AF0522F9E43553FA120284
:101D0300E3543F120329AB52E55422F9E43553FA65
:101D13000202E3AC05A907121DDD7FA01219A5AFCE
:101D2300011219A5AF041219A5021E28200404C22A
:101D3300858002D285000000D2840000000000C22A
:101D4300840000228F4CA9057F017E00AD0119EDAF
:101D53006009AD4C7C0012033B80F122438920755E
:101D63009850758DFA858D8BE4F587D28ED2ACD2DF
:101D7300AF22D28500D2840000000000C28500009B
:101D8300000000C284000022C28500D2840000004B
:101D93000000D2850000000022AB07AA06ED4C60CC
:101DA30003021E1DAF03121E1222740129F9E43A25
:101DB300FA0D22121C37EF020329121C90121DC8C0
:101DC300AF04121C90D284C2842214B915800D581A
:101DD3000AAF03E618F613CC121DD285121CB6C245
:101DE30085121CBBC284021CBBAD078562687FA23F
:101DF300121BD69205A20522C2AC8F993099FDC25F
:101E030099D2AC22755B02121A3E9200A2002212F2
:101E13001AF2E4FF121DBD021E3B121AF27F40129A
:101E23001DBD021E3BC285121CB6D285021CBBD24D
:101E330084D285C285C28422D284C285D2852200FF
:101E430000000000000000002F0000000007000752
:101E53000000147F147F1400242A7F2A1200626476
:101E630008132300364955225000000503000000E3
:101E7300001C224100000041221C000014083E08FF
:101E8300140008083E0808000000A06000000808CD
:101E93000808080000606000000020100804020029
:101EA3003E5149453E0000427F4000004261514996
:101EB30046002141454B31001814127F100027457D
:101EC300454539003C4A4949300001710905030081
:101ED300364949493600064949291E00003636006D
:101EE30000000056360000000814224100001414BC
:101EF30014141400004122140800020151090600C1
:101F0300324959513E007C1211127C007F494949E4
:101F130036003E41414122007F4141221C007F495E
:101F2300494941007F09090901003E4149497A00B5
:101F33007F0808087F0000417F4100002040413FA7
:101F430001007F08142241007F40404040007F028F
:101F53000C027F007F0408107F003E4141413E0098
:101F63007F09090906003E4151215E007F091929B5
:101F7300460046494949310001017F0101003F40C4
:101F830040403F001F2040201F003F4038403F009B
:101F9300631408146300070870080700615149457A
:101FA3004300007F41410000552A552A5500004156
:101FB300417F000004020102040040404040400011
:101FC3000001020400002054545478007F48444424
:101FD3003800384444442000384444487F0038548F
:101FE30054541800087E0901020018A4A4A47C001C
:101FF3007F080404780000447D4000004080847D15
:1020030000007F102844000000417F4000007C0452
:10201300180478007C0804047800384444443800E9
:10202300FC242424180018242418FC007C0804042D
:102033000800485454542000043F444020003C40CE
:1020430040207C001C2040201C003C4030403C00D1
:102053004428102844001CA0A0A07C004464544CD5
:1020630044141414141414D4CBD0D0CEC8B6A8007E
:10207300B5CDD3DACFC2CFDE00B8DFD3DAC9CFCF45
:10208300DE0054454D503A20202020202E00544994
:102093004D453A004D41583A004D494E3A0054459A
:1020A3004D50204F564552210054454D5020204C51
:1020B3004F57210054454D5020204E4F522100438D
:1020C3000046005345543A005354413A00454E44A8
:1020D3003A00533A00583A002B002D0020002020EC
:0E20E3002020002020004F4B2100494E4700D6
:00000001FF
