:03000000020003F8
:0C000300787FE4F6D8FD75812002004AE9
:03028500010A006B
:1001DD00D3EF9400EE940040167D72EDD39400742D
:0F01ED0080948040031D80F3EF1F70E41E80E1BB
:0101FC0022E0
:02028900002251
:0A027B00D2B6120289D2B502028940
:0C026F00D2B5D2B6120289C2B5020289D3
:0F026000C2B6C2B500D2B6120289D2B502028967
:10019000E4FEEEC3940874809480501BC2B6EF3026
:1001A000E704D2B58002C2B5120289D2B612028922
:0701B000EF25E0FF0E80DBEC
:0101B7002225
:10013800E4FFEFC39408748094805020C2B600D2C4
:10014800B612028930B502050BC2B6EF6407700318
:0E015800AF0B22E50B25E0F50B0F80D67F5094
:010166002276
:10021B00C2B600300004C2B58002D2B5120289D238
:09022B00B600C2B600D2B50022F3
:0602340012026F1201909E
:10023A00C2B6D2B500D2B600A2B5920000C2B6A22A
:01024A0000B3
:01024B002290
:10016700AE07AC031202345003750A01AF05120142
:100177009012023A5003750A01AF0412019012025D
:090187003A5003750A01020260FE
:02010500AC0745
:100107001202345003750A01AF0512019012023A28
:100117005003750A0112026FEC04FF1201901202DC
:100127003A5003750A01120138C20012021B02027B
:010137006067
:10024C00438920758DFD758CFDD28EC29FD29ED2B6
:04025C00AFD2AC224F
:1001B80012027B7B377D207FA01201677F647E005F
:1001C8001201DD7D207FA01201058F90E50A6003F2
:0501D800E4F59080FE3B
:10008F00E4F50985A008E508F47002FF227F0A7ED7
:10009F00001201FD75A0FF85A008E508F47002FFAE
:1000AF0022E5082481603E24C0603524E0602C24C2
:1000BF00F0602324F8601A24FC601124FE600814F9
:1000CF0070267509018021750902801C750903804E
:1000DF00177509048012750905800D7509068008CA
:1000EF00750907800375090875A0FF85A008E50845
:0500FF00F470F5AF09EB
:0101040022D8
:1001FD00D3EF9400EE940040147D647C00ED1D70EF
:0D020D00011CED4C70F7EF1F70E61E80E342
:01021A0022C1
:10000F000201B8E493A3F8E493A34003F68001F24E
:10001F0008DFF48029E493A3F85407240CC8C333F2
:10002F00C4540F4420C8834004F456800146F6DFC1
:10003F00E4800B0102040810204080900285E47ECA
:10004F00019360BCA3FF543F30E509541FFEE493B6
:10005F00A360010ECF54C025E060A840B8E493A37D
:10006F00FAE493A3F8E493A3C8C582C8CAC583CAA8
:10007F00F0A3C8C582C8CAC583CADFE9DEE780BE60
:010288000075
:00000001FF
