:0220E6001FF0E9
:0220E800188E50
:0220EA00207460
:0220EC002120B1
:0220EE0020A62A
:10001E0000010002000000000000000100020000CC
:10002E0000000000000100050404040700000001A8
:10003E000000000000020000000703030306000298
:10004E000000000000000001000504040000000094
:10005E000001000000080000000000070303030376
:10006E000413000200000000000000000002000067
:10007E00001406000014030000000002010000023C
:10008E00000000000002010000020000000000025B
:10009E00010000020000020000020100000504043D
:1000AE00041300020008000000000000000200001F
:1000BE00000100020000000000000000000000002F
:1000CE000000000000000000000000000000000022
:1000DE000000000000000000000000000000000012
:1000EE000000000000000000000000000000000002
:1000FE0000000000000800000000000000000000EA
:10010E0000010002000000000000000000000000DE
:10011E0000000000000000000000000000000000D1
:10012E0000000000000000000000000000000000C1
:10013E0000000000000000000000000000000000B1
:10014E000000000000080000000000000000000099
:10015E00000100020000000000000000000000008E
:10016E000000000000000000000000000000000081
:10017E000000000000000000000000000000000071
:10018E000000000000000000000000000000000061
:10019E000000000000080000000000000000000049
:1001AE00000100020000000000000000000000003E
:1001BE000000000000000000000000000000000031
:1001CE000000000000000000000000000000000021
:1001DE000000000000000000000000000000000011
:1001EE0000000000000800000000000000000000F9
:1001FE000000001C2662636363636362261C0000BA
:10020E00000000083818181818181818183E0000A2
:10021E000000003C66636606040810237E7E000024
:10022E000000003C6666061C1C060363663C00006C
:10023E00000000060E1E162626467F06061F00002C
:10024E000000007E60607C7E67030363663C0000F6
:10025E000000001E2660607E62636363223C000025
:10026E000000007F6246040C0818181818180000C9
:10027E000000003E6263623E3C666343623C0000E7
:10028E000000003C66636363673F0326663C000024
:10029E000000000000000C1E1E0C000C1E1E0C00A8
:1002AE000000001818181818080800001818000088
:1002BE0080828486888A8C8E90929496989CA0A434
:1002CE00A8ACB0B4B8BCC0C4C8CCD0D4D8DCE0E4C0
:1002DE00E8EC00000000000000000000000000003C
:1002EE000000000000000000000000000000000000
:1002FE00000000003F202020202020202020203F32
:10030E0000000101FD05050505050505050505FDB1
:10031E0001018080BFA0A0A0A0A0A0A0A0A0A0BF0F
:10032E0080800000FC04040404040404040404FC9F
:10033E000000FF003F202020202020202020203FF2
:10034E000000FF00FC04040404040404040404FC80
:10035E00000000003F202020202020202020203FD1
:10036E0000FF0000FC04040404040404040404FC60
:10037E0000FF8080BFA0A0A0A0A0A0A0A0A0BF80D2
:10038E0080FF0000FC040404040404040404FC00C4
:10039E0000FFFF003F202020202020202020203F93
:1003AE000000FF01F909090909090909090909F9F3
:1003BE00010100003F202020202020202020203F6F
:1003CE0000000000FC04040404040404040404FCFF
:1003DE0000000001020201070C14141404070202AB
:1003EE0007000080404080E03028282820E0404070
:1003FE00E00010143E49BF01013F21213F030519C2
:10040E0061018088FC20F80808F80004FE0404242A
:10041E001800100804047F010101FF010202040804
:10042E0030C010182048FC000004FE0080804030D0
:10043E000E0400003F3F3F3F3F3F3F3F3F3F3F3FA8
:10044E0000000000FCFCFCFCFCFCFCFCFCFCFCFCCE
:10045E0000000004060F080808191130301C0300B4
:10046E000000000000C0780C0C8888181030A0E046
:10047E0020000000FC040404040404040404FC0032
:10048E0000FF80809F9090909090909090909F8091
:10049E0080FFFF01FD05050505050505050505FDA3
:1004AE000101FF003F202020202020202020203F7F
:1004BE000000022111100302F2121310101519126E
:1004CE00040808081020F8080808F8A0A020222226
:1004DE001E0000007C4444447C4444447C4401019E
:1004EE00020400FC848484FC848484FC84840404DC
:1004FE001408000022222222223E2222222222221E
:10050E0000000000FC848484FC80808080808080D9
:10051E0000000000100804020101010F0101010199
:10052E000100000010204080000000E000000000EC
:10053E0000000047202300EF2023222322232A320B
:10054E00220248FC40F840FE08FC08F808F80808AB
:10055E002810004232130204F71010101111122C41
:10056E004403404048FC4044FEA0A0A022221E00AE
:10057E0006FC0000BCACB4A424A424E424140CFC9B
:10058E00000000003D352D25242524272428303F4A
:02059E0000005B
:101C9E00810C6481080081090181040081070181A2
:101CAE000D00810532810600810A0A810B00820235
:021CBE00000024
:0920F000C2B0C2B28F80D2B2224C
:0920F900D2B0C2B28F80D2B22233
:082086003AF583E493FF7DC0ED
:08208E001220F0AF050220F959
:0D000E001220F0AF051220F0AF030220F920
:101EF3007B407D10E4FF12000E0BFD7F1E12000ECF
:101F03000BFF12000E0B7F1E12000E7FA21220F990
:0A1F13007F801220F97F9E0220F962
:071EC800EFF2A90308EDF29F
:021ECF00AC0362
:101ED100EF75F01EA4FFED7A002FFFEA35F0CF2455
:101EE10000CF3410FEFD7B2412000EAF047DC4022E
:021EF100208E41
:021CFD00A90735
:101CFF007B22E4FD7F0312000E7B247D1CFF12006C
:101D0F000EFBFA74FE2BF58274011220860BBB00BA
:101D1F00010AEB64C04A70EBE4FAFBE9FEE47803D6
:101D2F00CEC313CE13D8F9FFC3EB9FEA9E501174A5
:101D3F00E02BF58274021220860BBB00010A80DBB8
:011D4F002271
:101E24007808E29002CA25E0FFEE25E0FDE493FB8A
:101E34007887121EC818E204FF08E2FDE904FB12C9
:101E44001ECF18E2FF08E204FDE92402FB121ECFB4
:0F1E540018E204FF08E204FDE92403FB021ECF9D
:05202000E293FB7F0CC0
:102025007887121EC818E204FF08E2FDE904FB02E6
:022035001ECFBC
:101D5000E4FFEFC39408748094805042E4FEEEC325
:101D6000940A7480948050337807E275F050A4246C
:101D7000CEF582E5F034FFF58375F00AEF1209FC29
:101D8000E5822EF582E43583F583E493FDEF75F06B
:0E1D90000AA424212EF8A6050E80C30F80B4ED
:011D9E002222
:101BD7009002CBE493FB7D06E4FF121E349002D6FD
:101BE700E493FB7D08E4FF121E349002D9E493FBD3
:101BF7007D0AE4FF121E34A3E493FB7D0CE4FF127D
:101C07001E349002D3E493FB7D167F04121E34909A
:101C170002BEE493FB7D187F041220257807E29328
:101C2700FB7D197F041220259002D4E493FB7D1AD3
:051C37007F04021E34D1
:101A5100E4FF7885F208F2780CE2FEFD3395E0FCB4
:101A6100D3ED94E7EC64809483400B7F097885740F
:101A710009F208F2803D780CE2FD75F0641208AFBE
:101A8100FF75F00A1208AFAFF0ED75F00A1208AF5A
:101A9100FD75F00A1208AFADF07885EDF2EE75F044
:101AA1000A1208AFAEF0EE75F00A1208AFAEF07888
:101AB10086EEF2EF9002BE93FB7D177F0C1220257C
:101AC10078857D1812202078867D191220209002B9
:0B1AD100DBE493FB7D157F0C021E344C
:101B5C00E47885F208F27805E2FED394E774809479
:101B6C0083400B7F0978857409F208F2802B780585
:101B7C00E2FD75F0648475F00A84AFF0ED75F00A3F
:101B8C008475F00A847885E5F0F2EE75F00A84E548
:101B9C00F075F00A8408E5F0F2EF9002BE93FB7D3D
:101BAC00177F0A1220257885E293FB7D187F0A1295
:101BBC0020257886E293FB7D197F0A12202590025E
:0B1BCC00DCE493FB7D157F0A021E3451
:06210A00121A51021B5CD9
:101FD800E4786FF2087402F27872740AF218740CDA
:081FE800F27BFE7A00796F2202
:0D1502007878EBF208EAF208E9F208EDF261
:10150F00787BE2FFC394097480948040030215CB6B
:10151F00EF75F004A4FF7878E2FB08E2FA08E22FF7
:10152F00F9EA35F0FA78897C007D017E007F04129C
:10153F000889787BE2FD2401FFE433FEEF7802C3D4
:10154F0033CE33CED8F9FF7878E2FB08E2FA08E21F
:10155F002FF9EA3EFAC003C002C001ED75F004A4F2
:10156F00FF7878E2FB08E2FA08E22FF9EA35F0A8F3
:10157F0001FCAD03D001D002D0037E007F0412081E
:10158F0089787BE22401FFE433FEEF7802C333CE88
:10159F0033CED8F9FF7878E2FB08E2FA08E22FF9A8
:1015AF00EA3EA801FCAD037B017A0079897E007FBA
:0C15BF0004120889787BE204F202150F88
:0115CB0022FD
:0A17EA00786FEBF208EAF208E9F26A
:1017F400E408F2F2780AE2FF7872E2C39F4003023F
:10180400188D786FE2FB08E2FA08E2F908E2FE7547
:10181400F004A4F58285F0831208EA25E0FCEE7555
:10182400F004A4FFE92FF9EA35F0FA900001120858
:10183400EA25E0FD9002CAE493FBAF04121E34785B
:101844006FE2FB08E2FA08E2F908E2FE75F004A48C
:10185400F58285F0831208EA25E0FCEE75F004A415
:10186400FFE92FF9EA35F0FA9000011208EA25E0C1
:10187400FD9000021208EA9002CA93FBAF04121E04
:09188400347872E204F20217F854
:01188D002238
:0A0CEB00786FEBF208EAF208E9F274
:100CF500E47875F208F208F2780AE2FF7875E2C343
:100D05009F4003020F5D7877E204F2786FE2FB08FB
:100D1500E2FA08E2F97875E2FF75F004A4F5828538
:100D2500F0831208EA7872F2EF75F004A4FFAEF0D2
:100D3500E92FF9EA3EFA9000011208EA7873F29079
:100D450000021208EA7874F218E2FD18E275F00A5A
:100D5500A424212DF8E66408609E786FE2FB08E282
:100D6500FA08E22FF9EA3EFA9000031208EAFF3387
:100D750095E0FED3EF9400EE648094805003020C5E
:100D8500FD7877E254016003020E6118F2780BE2F8
:100D9500FF7876E2D39F5003020E61E2FF75F006FD
:100DA500A42471F97872E2C397FEEF75F006A424C6
:100DB50074F8E6D39E50047F0180027F007876E2C6
:100DC50075F006A42472F97873E2C39724026F6460
:100DD500027003020E597875E275F004A4FFAEF0B7
:100DE500786FE2FB08E2FA08E22FF9EA3EFAE92415
:100DF50003F9E43AFA1208D1FD7876E275F006A413
:100E05002475F8C3ED96120917786FE2FB08E2FA2C
:100E150008E22FF9EA3EFA9000031208EAFF33953B
:100E2500E0FED3EF9400EE6480948050277805E2CD
:100E35002408F27803E22432F218E23400F2786FE3
:100E4500E2FB08E2FA08E2F97875E2FD121502788C
:100E55000AE214F27876E204F2020D927873E2FF68
:100E650018E275F00AA4242B2FF8E66004640870D4
:100E750004787280177873E2FF18E275F00AA424EB
:100E8500222FF8E66004640870077873E204F280A4
:100E95001A7873E2FF18E275F00AA424202FF8E609
:100EA5006004640870057873E214F27872E2FF78E2
:100EB5006FE2FB08E2FA08E2F97875E2FE75F004E4
:100EC500A4F58285F083EF1209297873E2FDEE75AA
:100ED500F004A4FFE92FF9EA35F0FA900001ED12CC
:100EE5000929121D507F0A7E00121FA17875E2752F
:100EF500F004A4FF786FE2FB08E2FA08E22FF9EAB2
:100F050035F0FA9000011208EAFF786FE2FB08E27B
:100F1500FA08E2F97875E2FD75F004A4F58285F02A
:100F2500831208EA75F00AA424212FF8E6640870F4
:100F35001A780CE224F6F2786FE2FB08E2FA08E28E
:100F4500F9121502780AE214F280057875E204F2C6
:080F5500780AE26003020CFDC2
:010F5D002271
:101D9F00E4786FF2F2780BE2FF786FE2FEC39F50A8
:101DAF0032EE75F006A42471F8E625E0FFEE75F02B
:101DBF0006A42472F8E625E0FD786FE275F006A41C
:101DCF002473F8E69002CA93FB121E34786FE20474
:031DDF00F280C2CD
:011DE20022DE
:1015CC00121E63E47883F27883E2C39408748094E7
:1015DC00804003021671E408F27884E2C3940A7422
:1015EC008094805078E2FE7807E275F050A424CE07
:1015FC00F582E5F034FFF5837883E2FF75F00A128B
:10160C0009FCE5822EF582E43583F583E4939002A0
:10161C00CA93FBEF25E0FFEE25E0FD121E34788423
:10162C00E2FF7807E275F050A424CEF582E5F034A1
:10163C00FFF5837883E2FE75F00A1209FCE5822F30
:10164C00F582E43583F583E493FDEE75F00AA4246A
:10165C00212FF8A6057884E204F20215E57883E2DE
:10166C0004F20215D312210A7808E225E0FF08E201
:0C167C0025E0FD9002D5E493FB021E3433
:101E96009002DDE493FB7D16E4FF121E34A3E49367
:101EA600FB7D18E4FF121E349002D4E493FB7D1AE6
:101EB600E4FF121E349002C8E493FB7D1CE4FF028B
:021EC6002025D5
:101C3C00780AE2702A780CE2FF3395E0FED3EF9439
:101C4C0000EE64809480401778047402F208E2FD80
:101C5C007C00EF2DFFEC3ECF24E8CF3403802878B6
:101C6C000CE2FF3395E0FED3EF9400EE6480948099
:101C7C00501F78047402F208E2FD7C00EF2DFFEC9B
:101C8C003ECF24F4CF3401FE7803E22FF218E23E6B
:021C9C00F22232
:0A20D2007802E2FE08E2FF02141B90
:10193200E4787DF27590FF18E590F2E2F47002808F
:1019420079E4FFFE121FA17590FF787CE590F2E228
:10195200FFF4700408F28066EF2481604C24C060BA
:101962004124E0603624F0602B24F8602024FC60DF
:101972001524FE600A147036787D7401F2802F7887
:101982007D7402F28028787D7403F28021787D7460
:1019920004F2801A787D7405F28013787D7406F261
:1019A200800C787D7407F28005787D7408F275905A
:1019B200FF787CE590F2E2F470F408E2FF22787D91
:0219C200E2FF42
:0119C4002200
:101DE300EFFD64016005ED640370157807E2C394A9
:101DF30005748094805009E204F2E408F20804F2C6
:101E0300EFFD64026005ED640470157807E2D39476
:101E130001748094804009E214F2E408F20804F2A9
:011E2300229C
:101ADC00E47800F27800E2C3940874809480506F2C
:101AEC00E408F27801E2FFC3940A748094805058A1
:101AFC007807E275F050A424CEF582E5F034FFF5BA
:101B0C00837800E2FE75F00A1209FCE5822FF5825B
:101B1C00E43583F583E493FF602708E2FDEE75F06E
:101B2C000AA424212DF8E670187801E2FE18E2FDD3
:101B3C00EF9002CA93FBED25E0FFEE25E0FD121EAF
:0F1B4C00347801E204F2809B7800E204F2808595
:011B5B002267
:100F5E00787DEFF26401706B7808E2FF24FFE434D1
:100F6E00FFC364809480405B08E2FEEF75F00AA434
:100F7E0024172EF8E66017121E247809E2FE18E2F6
:100F8E0075F00AA424212EF8E4F67808802B78094F
:100F9E00E2FE18E2FF75F00AA4240D2EF8E6602397
:100FAE00EF121E277809E2FE18E275F00AA424213A
:100FBE002EF8E4F67808E214F2E214F2E29002D58A
:100FCE00121E2A787DE26404707A7808E2FF24010A
:100FDE00FDE433FCD3ED9408EC64809480506508F6
:100FEE00E2FEEF75F00AA4242B2EF8E66017121E0F
:100FFE00247809E2FE18E275F00AA424212EF8E402
:10100E00F67808802B7809E2FE18E2FF75F00AA444
:10101E0024352EF8E6602DEF121E277809E2FE1811
:10102E00E275F00AA424212EF8E4F67808E204F220
:10103E00E204F2E225E0FFEE25E0FD9002D5E49316
:10104E00FB121E34787DE2640260030210E278091E
:10105E00E2FF24FFE434FFC364809480407618E2FC
:10106E00FE75F00AA424202FF8E66028EE25E0FF96
:10107E007809E225E0FD9002CAE493FB121E347853
:10108E0009E2FF18E2FE75F00AA424212FF8E4F617
:10109E007809802C7809E2FE18E2FF75F00AA42484
:1010AE001F2EF8E6602EEF121E277809E2FF18E2D7
:1010BE00FE75F00AA424212FF8E4F67809E214F262
:1010CE00E214F2EE25E0FFE225E0FD9002D5E49376
:1010DE00FB121E34787DE2640360030211777809F7
:1010EE00E2FF2401FDE433FCD3ED940AEC6480941A
:1010FE0080507618E2FE75F00AA424222FF8E660DE
:10110E0028EE25E0FF7809E225E0FD9002CAE4937F
:10111E00FB121E347809E2FF18E2FE75F00AA424D1
:10112E00212FF8E4F67809802C7809E2FE18E2FF08
:10113E0075F00AA424232EF8E6602EEF121E2778EF
:10114E0009E2FF18E2FE75F00AA424212FF8E4F656
:10115E007809E204F2E204F2EE25E0FFE225E0FD7A
:0A116E009002D5E493FB121E342218
:10204D007808E225E0FF08E225E0FD9002D5E49353
:04205D00FB021E3430
:101E6300E47885F27885E2C39408748094805022E4
:101E7300E408F27886E2FEC3940F74809480500BDA
:101E830018121E267886E204F280E87885E204F2CE
:021E930080D2FB
:011E9500222A
:10130400787CEFF26406700878047404F2021E9686
:10131400787CE264077026121E6378047401F27804
:101324000C7464F278057432F278097401F2E418EA
:10133400F2780A740AF2E47806F20215CC787CE2B8
:10134400FF7E006408700F7804E264017002F222E8
:1013540078047401F222EF64054E60030213EC7802
:1013640004E26401600302141A7809E2FF18E2FE41
:1013740075F00AA424212FF8E6700302141A7805E4
:10138400E2C3943274809480400C780BE275F006CA
:10139400A42471F8A606780BE2FE75F006A4247264
:1013A400F8A607EE75F006A42473F876157F007E80
:1013B400007D007C401217461205A0780BE2FE75F2
:1013C400F006A42474F8A607EE75F006A42475F8B4
:1013D4007605EE75F006A42476F87602780BE2041E
:1013E400F27805E224CEF222787CE2FFC3940574FD
:1013F40080948050217804E2FD64046005ED640368
:101404007003021DE37804E26401700A787CE2FF51
:07141400120F5E121D5022B1
:10188E007804E264017074121E631215CC12210AE0
:10189E0012204D7806E2FFC3940A74809480503A69
:1018AE00EF75F004A42447F9E4FA7BFE786F7C0010
:1018BE007DFEFE7F04120889121FD8C0017806E251
:1018CE0075F004A42447F9E4A801FC7DFED001FEC6
:1018DE007F041208897806E204F27BFE7A007947CB
:1018EE001217EA7BFE7A007947120CEB121D9F7DD0
:1018FE00E87F80120C8C121C3C80857804E2640216
:10190E00700280197804E264037006121BD7021865
:10191E008E7804E2600D6404600302188E121E9627
:03192E0002188E0E
:011931002293
:10207400121932EF60031213047D647F80120C8CFA
:0220840080EEEC
:0221200080FE3F
:0F20A6007844E2FE08E2FF4E60F612211B80F143
:101FF000121EF31220967F16121CFD1215CC7F04C0
:08200000120B7AE4FF020C034D
:0E20C400FEFDFBF73F065B4F666D7D077F6FED
:04141B00AB07AA066B
:10141F007C007D0A1209A0780EECF208EDF27C0038
:10142F007D0AAF03AE021209A07C007D0A1209A04B
:10143F007810ECF208EDF27C007D64AF03AE02127F
:10144F0009A07C007D0A1209A07812ECF208EDF2D7
:10145F00AE02AF037C037DE81209A07814EEF20808
:10146F00EFF2E4FFEFFDC394047480948040030215
:10147F001501EF9020C493F5A0E4F590ED6403708F
:10148F0013780EE2FC08E224C8F58274203CF58341
:10149F00E493F590EFFD7C00640270137810E2FA8C
:1014AF0008E224C8F58274203AF583E493F590EDB1
:1014BF0064014C70137812E2FC08E224C8F58274C0
:1014CF00203CF583E493F590EF70137814E2FC0859
:1014DF00E224C8F58274203CF583E493F5907D0AED
:1014EF007C00ED1DAA0470011C4A70F6F5900F02E6
:0214FF00147364
:0115010022C7
:10200800438920758DFD758CFDD28EC2AB53877FB9
:08201800759850D2AFD2AC2242
:080003008F993099FDC299228A
:072102003098FDAF99C2986F
:0121090022B3
:101FA100EFD394007480948040127E64EED3940049
:0C1FB1007480948040031E80F31F80E4C5
:011FBD002201
:05211000122115D2B6FA
:0121150022A7
:05211600D2B5D2B62293
:0F20B500D2B5D2B6122115C2B5122115C2B6226C
:0A20DC00C2B5122110D2B502211581
:061FBE001220B5121F44C1
:101FC400D2B5122110A2B59200122115C2B6122167
:031FD40015A20053
:011FD70022E7
:101F4400E4FEEEC39408748094805013EF3392B58A
:0F1F5400122110C2B6122115EF25E0FF0E80E317
:011F6300225B
:101F1D00E4FEEEC3940874809480501AD2B6122158
:101F2D0015EF25E0FF12211530B5034401FFC2B6B0
:061F3D001221150E80DCEC
:011F4300227B
:10203700121FBEAF05121F44121FC4AF03121F4465
:06204700121FC40220DCA0
:021F6400AC07C8
:101F6600121FBEAF05121F44121FC41220B5EC0487
:0D1F7600FF121F44121FC4121F1D0220DCA9
:10117800000002000002000002060101070101014F
:10118800020307010101020203020207010400022F
:101198000203010103010106010305010106010221
:1011A8000102020501040001020301020401030314
:1011B800010104010201020203010300000101020E
:1011C80001010201010201070103040101040102F6
:1011D80007010207010400000206010107010101DD
:1011E80002030701010102020302020701040000D1
:1011F80002030101030101060103050101060102C1
:1012080001020205010400000202010103010104B8
:1012180001020102010701020102030202010202A6
:10122800010302010102030000020102010701019A
:101238000601010601010701020501020601040079
:101248000002010201020201030203020201030279
:101258000205020202020400000205010105010163
:101268000102030701010102020302020302040052
:101278000002060101070101010202070102020240
:101288000102020101020305010105010300000139
:101298000402020302020202020102020302040023
:1012A800000203020206020405020205020203020A
:1012B800010202010102040002010102010202020C
:1012C80001020102020102020205020203020400F5
:1012D80002020302020602040502040302010202DA
:1012E80001010204000001010201020202010201DF
:0C12F800020201020202070102060102CC
:101CC000A02A1A0EE80D490BD60B3109F708E007D8
:101CD000E8077806A705ED059804FB047003F403F4
:101CE000C5035302F602CB025D021A01D2814600FF
:0C1CF000811900824400008316FF117867
:10209600438910758D02758B18D2AFD2ABD28E22C2
:03001B0002168842
:10168800C0E0C0F0C083C082C0D075D000C000C028
:1016980001C002C003C004C005C006C007758D3C68
:1016A800758BB07846E204F27819E275F004A4FF6D
:1016B8007846E2C39FE5F06480F8748098406078CB
:1016C80046E4F27816E2FB08E2FA08E2F91208D1D9
:1016D800FFFD3395E04D601D9000011208EA75F09A
:1016E80007A42F25E02418F8E2FF08E27844CFF297
:1016F80008EFF280067844E4F208F27816E2FB0874
:10170800E2FA08E2F99000021208EA7819F218E2FF
:101718002403F218E23400F27F647E00121F83D0A3
:1017280007D006D005D004D003D002D001D000D015
:0A173800D0D082D083D0F0D0E03290
:05211B00B2B7022061D3
:101F8300EF1FAA0670011E4A6013E4FCFDC3ED9423
:0D1F93004BEC940050EA0DBD00010C80F0F5
:011FA000221E
:102061007C007D0A12094BEF4E6007EF1F70F81ECE
:0320710080F522D5
:03000B00020A0DD9
:100A0800C2AF80FE32120A0C85D00B75D008AAE05E
:100A1800C28CE58A24F7F58AE58C34D8F58CD28C1B
:100A2800EC2419F8E6BC040274FFC39581B41400E1
:100A380040CE7905780E16E608700BC2AFE630E1B5
:100A4800034418F6D2AF08D9EDEA8BD03001012261
:100A5800D50DFCC0E0C0D0C0F0C083C082C000C0CB
:100A680001C002C003C004C005C006C007E50C23CE
:100A7800240FF87440C2AF46F6D2AFD201E50CFF9E
:100A880023240FF80F0808BF05047F00780FE6300D
:100A9800E4F200E50CC39F5020050C7418250CF8EF
:100AA800E6FDA68108E6AE0CBE040274FFCDF8E8A8
:100AB8006D60E008E6C0E080F6E50CD39F4027E5CE
:100AC8000C2419F8E6AE0CBE040274FFFD18E6CD3E
:100AD800F8E5816D6006D0E0F61880F5E50C24187D
:100AE800C8F6150C80D3750D05E50C23240FF87F87
:100AF80004C2AFE610E61E30E00310E20C7F0030BF
:050B0800E10730E304E9
:100B0D007F0854F4547CC6D2AF54804207C20122F0
:100B1D00F6D2AFD007D006D005D004D003D002D086
:100B2D0001D000D082D083D0F0D0D0D0E0C201224D
:100B3D007818A68174046006FF0876FFDFFB7F0539
:100B4D00E4780EF608F608DFFA780F76309020E696
:100B5D00740193C0E0E493C0E0750D054389017500
:0D0B6D008AF0758CD8D28CD2AFD2A92204A8
:100B7A00EFD3940440037FFF22740F2F2FF8E6204F
:100B8A00E5F4C2AFE64430F6D2AFAE0CEEC39F50E6
:100B9A00210E74182EF8E6F908E618BE040274FF4E
:100BAA00FDED69600909E71919F7090980F31616B5
:100BBA0080DAEED39F400405810581EED39F40225F
:100BCA0074182EF808E6F9EEB50C02A98118060683
:100BDA00E6FDED6960091919E70909F71980F31E9D
:100BEA0080D9EF2418F8E604F8EF2F049020E69352
:090BFA00F608EF2F93F67F0022AC
:100C0300EFD3940440037FFF22EF23240FF8E63051
:100C1300E5F4C2AFE6548CF6D2AFE50CB5070A741F
:100C2300182FF8E6F581020A83502E74192FF8E67F
:100C3300BF040274FFFD18E6F974182FF8FBE6FCF5
:100C4300E96C6008A805E7F61D1980F4A803A6055A
:100C53001FE50CB507E37F002274192FF8E6FD1892
:100C630086010F74182FF8A601088604E50CB50752
:100C730002AC81ED6C60080D09A805E6F780F4E588
:090C83000CB507DE89817F002217
:100C8C008FF0E4FFFEE50C23240EF8C2A930F70D1B
:100C9C007F08E6600B2DF660325030800730F1068D
:100CAC00EDF660277E020830F010C2AFE610E725A3
:100CBC000E30E20CD2AF7F048014C2AFE610E71501
:100CCC0054EC4EF6D2AFD2A9020A837F0808EF4447
:0F0CDC0083F4C2AF56C6D2AFD2A954804FFF22C5
:1005A000EDD2E7CD33EC3392D524814006E4FFFE53
:1005B000FDFC22FCE4CFCECDCC24E0501174FF80B2
:1005C000EDC3CC13CCCD13CDCE13CECF13CF04704F
:0705D000F030D5DE0209D670
:1017420002060C22EDA2E7D2E7F9EC3340F260F395
:10175200B4FF08ED547F70E8020616F82481C2E057
:10176200C0E0F40428FAC313FCED92E7FD787D1281
:1017720009F0EEA2E7E9BA7F02C31334009400FA3B
:1017820075F091A4E5F013F494FE8AF0A433E5F029
:1017920033248CD313FDE492E7FE7F007C3F7583F4
:1017A20002ECC0E0F8EDC0E0F9EEC0E0FAEFC0E014
:1017B200FB88F0787D1209E4A8F012071CD0E0FB48
:1017C200D0E0FAD0E0F9D0E0F8120628ED6480FD0E
:1017D20030E7011CD583CAED33CC33F8D0E0A2E761
:0817E2001328C313CC13FD22F0
:1005D700E9D2E7C933E833F892D5EDD2E7CD33EC6A
:0705E70033FC5002B2D522E3
:1005EE00EC30E7100FBF000C0EBE00080DBD00046E
:1005FE000BEB6014A2D5EB13FCED92E7FD2274FF1A
:10060E00FCFDFEFF22E480F8A2D574FF13FC7D8072
:03061E00E480EF86
:1006210002060CE86480F8E933E83360110460F0F5
:10063100ED33EC337009E8FCE9FDEAFEEBFF22043F
:1006410060DED3EB9FEA9EE99DE8C2E78CF0C2F73A
:1006510095F0400CE8CCF8E9CDF9EACEFAEBCFFB06
:100661001205D785D0F05804700320D5B3E8047083
:10067100075002B2D502061692D5EC0460F7E4CC1D
:10068100C0E0C398F8603B94186008400DD0E0FBCF
:100691000205EEE4FBFAC9FC8028E830E406E4C96F
:1006A100FBE4CAFCE830E305E4C9CACBFCE8540723
:1006B1006010F8C3E913F9EA13FAEB13FBEC13FC2E
:1006C100D8F130F52FC3E49CFCEF9BFFEE9AFEEDD1
:1006D10099FDD0E0FBEF4E4D4C701222DB03020678
:1006E10013EC2CFCEF33FFEE33FEED33FDED30E781
:1006F100EB0205EEEF2BFFEE3AFEED39FDD0E0FB0C
:1007010050130BBB0003020616ED13FDEE13FEEFB3
:0807110013FFEC13FC0205EEDE
:10071900020616EC5D046005E85904700302060C34
:100729001205D7580460F6EC4860F2EC7004FDFE3F
:10073900FF22C860DB2481C85009C39860025006B3
:100749000206139850CAF582E9294B4A7005AB8213
:1007590002060275F0007C1A7880C3EF9BEE9AEDD1
:1007690099400DC3EF9BFFEE9AFEED99FDE842F02B
:10077900DC23ACF0D0E0FFD0E0FED0E0FDAB82207E
:10078900E7101BEB60BAEC2CFCEF33FFEE33FEED08
:1007990033FD0205EEE803F830E705C0F075F00017
:1007A900EF2FFFEE33FEED33FD40B830E7C280AAEC
:030000000219C51D
:0C19C500787FE4F6D8FD75818E021A0CC4
:1007B900E709F608DFFA8046E709F208DFFA803E22
:1007C90088828C83E709F0A3DFFA8032E309F6080F
:1007D900DFFA8078E309F208DFFA807088828C8377
:1007E900E309F0A3DFFA806489828A83E0A3F6082B
:1007F900DFFA805889828A83E0A3F208DFFA804C05
:1008090080D280FA80C680D4806980F280338010DB
:1008190080A680EA809A80A880DA80E280CA803344
:1008290089828A83ECFAE493A3C8C582C8CCC583BC
:10083900CCF0A3C8C582C8CCC583CCDFE9DEE7808C
:100849000D89828A83E493A3F608DFF9ECFAA9F00B
:10085900EDFB2289828A83ECFAE0A3C8C582C8CC61
:10086900C583CCF0A3C8C582C8CCC583CCDFEADE7A
:10087900E880DB89828A83E493A3F208DFF980CCDC
:1008890088F0EF60010E4E60C388F0ED2402B404D5
:100899000050B9F582EB2402B4040050AF2323457C
:0608A90082239008097390
:1008AF00C2D530F707B2D563F0FF05F030E70CB2D1
:1008BF00D5F4048463F0FF05F080018430D502F491
:0208CF00042201
:1008D100BB010689828A83E0225002E722BBFE0225
:0908E100E32289828A83E4932258
:1008EA00BB010CE58229F582E5833AF583E02250C3
:1008FA0006E92582F8E622BBFE06E92582F8E2220D
:0D090A00E58229F582E5833AF583E4932226
:10091700BB010689828A83F0225002F722BBFE01BF
:02092700F322B9
:10092900F8BB010DE58229F582E5833AF583E8F004
:10093900225006E92582C8F622BBFE05E92582C8B0
:02094900F22298
:10094B00BC000BBE0029EF8DF084FFADF022E4CC90
:10095B00F875F008EF2FFFEE33FEEC33FCEE9DEC59
:10096B00984005FCEE9DFE0FD5F0E9E4CEFD22ED9F
:10097B00F8F5F0EE8420D21CFEADF075F008EF2FE9
:10098B00FFED33FD4007985006D5F0F222C398FDDA
:05099B000FD5F0EA2277
:1009A000C2D5EC30E709B2D5E4C39DFDE49CFCEE72
:1009B00030E715B2D5E4C39FFFE49EFE12094BC396
:1009C000E49DFDE49CFC800312094B30D507C3E491
:0609D0009FFFE49EFE22E1
:0E09D600C3E49FFFE49EFEE49DFDE49CFC2232
:0C09E400E2FC08E2FD08E2FE08E2FF224F
:0C09F000ECF208EDF208EEF208EFF22243
:0C09FC00A42582F582E5F03583F5832206
:1019D100020B3DE493A3F8E493A34003F68001F2E4
:1019E10008DFF48029E493A3F85407240CC8C33317
:1019F100C4540F4420C8834004F456800146F6DFE6
:101A0100E4800B0102040810204080901C9EE47EBB
:101A1100019360BCA3FF543F30E509541FFEE493DA
:101A2100A360010ECF54C025E060A840B8E493A3A1
:101A3100FAE493A3F8E493A3C8C582C8CAC583CACC
:101A4100F0A3C8C582C8CAC583CADFE9DEE780BE84
:011CFC0000E7
:00000001FF
