:10000E0059616E20487561205969204C656E6720D4
:10001E002020204661205275205875652020202012
:10002E0020204A69616E2044616E204169202020A3
:10003E005A686920596F75204D616D612048616F56
:10004E002044616E67204E692047752044616E2002
:10005E005869616E674A69616E205869616F4C75A7
:10006E0020202020536F6E672042696520202020BB
:10007E004C616E67204D616E204465205368692087
:10008E00050201030201020202020204030201013F
:10009E00020102020103020405020103020102022F
:1000AE00020202020501010302010402010302041D
:1000BE00030201030201070201030201020202010F
:1000CE0002010701010102010202010302010602FF
:1000DE0003060101010201030201020201060101F0
:1000EE0001020107010105010106010605020103D6
:1000FE0002010202020202010202010302010102D6
:10010E0001020201030204050201030201020202BE
:10011E0002020102020105010103020104020103B0
:10012E000204030201030201070203030201020299
:10013E000201020107010101020102020103020193
:10014E000602030601010102010302010202010679
:10015E00010101020107010205010206010600006C
:10016E000005010102020103020202020103020163
:10017E00050201060201050203010201020201034A
:10018E000201060201050201030201050203050236
:10019E00010602010103020602010502010302012A
:1001AE000502010302020102010202010302010122
:1001BE000201060101030201020201050101020210
:1001CE0001030202020201030201050201060201FD
:1001DE0005020301020102020103020106020105EA
:1001EE0002030502010602010103020602010502D5
:1001FE0001030201050201030202050201060101CB
:10020E0003020102020101020106010101020102C3
:10021E0002010202010102040000000501010102B7
:10022E0001020201030201020201030201040201A2
:10023E000502010502010502010402010302010289
:10024E00020305010101020102020103020104027F
:10025E000105020105020105020106020105020265
:10026E000202010302010102020102010601010262
:10027E000201020201030201030201010201050251
:10028E000101020105020101020107010101020142
:10029E000102010601010202010202010302010331
:1002AE000201050201050201050201060201050215
:1002BE000202020103020101020205010101020113
:1002CE0002010203020102020103020104020105FE
:1002DE0002010502010502010402010302010202EC
:1002EE0003050101010201020201030201020201E2
:1002FE0003020104020105020105020105020202C8
:10030E0002010302010102020102010601010202C1
:10031E0001020201030201030201010202050201B0
:10032E00010201050201050201070101010201009E
:10033E000000060203050201030202050202010388
:10034E000206020105020106020403020205020171
:10035E000602010502020302020102010601010565
:10036E00020103020102020402020301020105025C
:10037E000205020106020103020202020201020448
:10038E00050203030201020201010201060101013D
:10039E00020105010600000003020203020104022D
:1003AE00010302020202010102010202020502021F
:1003BE00020202020203010202010201060201010F
:1003CE0002020701010601010701020302020701F1
:1003DE0002070103060102020201030201020201E9
:1003EE0001020106010205010202020103020102DD
:1003FE0002010102010601020601020202010302CC
:10040E0001020201010201060101070101010206BA
:10041E0000000003010203010103010106000106B1
:10042E00000101010206000105000106000406009C
:10043E00020600010600010600020600010101018C
:10044E00020102020101030101020104030501037D
:10045E000101030101020101040102040102030171
:10046E00020201010101010201040700010700015E
:10047E000700010600010500010500010600010745
:10048E000001070001060001050001060004060137
:10049E000203010106010107010106010105010127
:1004AE000501020501010201010501010601010517
:1004BE000101040101040102040101030101020111
:1004CE000201010102010103010102010101010109
:1004DE0002010103010406010203010106010107E5
:1004EE0001010601010501010501020201010501DB
:1004FE0001060101050101040101000000050102D0
:10050E0003010305010101020306010201020205B6
:10051E0001040501020101010201010301020201B0
:10052E00010101010201040501020301010501019E
:10053E000102020701010601020102020501040582
:10054E000102020101030101040102070001010180
:10055E000406010201020201020407010206010162
:10056E000701010102040601010701010102010652
:10057E000101060101050101030101010101020151
:10058E000805010203010105010101020207010133
:10059E000601020102020501040501020201010326
:1005AE00010104010207000201010400000005011F
:1005BE000106010101020106010206010105010108
:1005CE0006010105010103010105010505010106F1
:1005DE0001010102010601020601010501010601E8
:1005EE0001050101060101010105010101020101DF
:1005FE0003010102010102010102010101010102D7
:10060E0001010101010601010301020201030501BD
:10061E0001060101010201060102060101050101A7
:10062E000601010501010601010101050101010299
:10063E00010103010104010204010105010106018A
:10064E000106010105010106010201020106010375
:10065E000102010601010501010501040101010666
:10066E000101050105050101060101010201030158
:10067E0001020101030101010106000000F2F3F580
:10068E00F5F6F7F8F9F9FAFAFBFBFCFCFCFDFDFDBB
:10069E00FDFEFEFEFEFEFEFEFF42C117B6D0D1B637
:1006AE0021E18CD868E95B8FEE446BB4F42D47776B
:0506BE00A2B6DAFA16F5
:100C3C00E4FDFCC3ED9FEC9E5015E4FBFA0BBB00EE
:0F0C4C00010AEB64644A70F50DBD00010C80E4F1
:010C5B002276
:100B3C00758901D2A9D2AF7580FFE4F5A01206C366
:100B4C0020B2257F057E00120C1C20B21BE50F7015
:100B5C000B750F01F50DF50ED2008004B200D2908A
:100B6C0020B2052000FA80F8209327E50F60237F40
:100B7C00057E00120C1C209319E50F6015D2901500
:100B8C000FD3E50F9400748094805003750F0812F6
:100B9C000C1320B5A8E50F60A47F057E00120C1C79
:100BAC0020B59AE50F6096D290050FC3E50F940916
:0F0BBC00748094804003750F01120C13020B49D3
:090C1300E4F50DF50E7FF47E01FD
:100C1C00E4FDFCC3ED9FEC9E5015E4FBFA0BBB000E
:0F0C2C00010AEB647B4A70F50DBD00010C80E4FA
:010C3B002296
:020BCB008F1089
:100BCD00E4F511E511C395105039E4F515F514F55B
:100BDD0013F512E47F407E1FFDFCAB15AA14A9137B
:100BED00A812C3120C5C5017E5152401F515E43558
:100BFD0014F514E43513F513E43512F51280D4050C
:050C0D001180C0C28C43
:010C120022BF
:03000B00020C865E
:090C8600B29085098C850C8A32BC
:0D0C6D0085098C850C8AD28CAF08020BCB58
:1006C300E50F64016003020752200003020752741E
:1006D3008F250EF5827400350DF583E49375F008CC
:1006E300A4FF748E250EF5827400350DF583E49313
:1006F3007C002FFFEC35F0CF24FFF50BEF34FFF533
:100703000AFE748B250BF58274063EF583E493F59C
:100713000974A7250BF58274063EF583E493F50C63
:100723007490250EF5827400350DF583E493F50876
:100733007403250EF50EE4350DF50DC3E50A64804B
:1007430094805008E4F50DF50E750F02120C6DE55B
:100753000F640260030207E12000030207E17470E3
:10076300250EF5827401350DF583E49375F008A425
:10077300FF746F250EF5827401350DF583E4937CC8
:10078300002FFFEC35F0CF24FFF50BEF34FFF50A14
:10079300FE748B250BF58274063EF583E493F5090D
:1007A30074A7250BF58274063EF583E493F50C7468
:1007B30071250EF5827401350DF583E493F5087404
:1007C30003250EF50EE4350DF50DC3E50A6480949B
:1007D300805008E4F50DF50E750F03120C6DE50F4F
:1007E30064036003020870200003020870742A2562
:1007F3000EF5827402350DF583E49375F008A4FFBA
:100803007429250EF5827402350DF583E4937C007B
:100813002FFFEC35F0CF24FFF50BEF34FFF50AFE85
:10082300748B250BF58274063EF583E493F5097406
:10083300A7250BF58274063EF583E493F50C742B20
:10084300250EF5827402350DF583E493F5087403E0
:10085300250EF50EE4350DF50DC3E50A648094808D
:100863005008E4F50DF50E750F04120C6DE50F64D9
:100873000460030208FF2000030208FF7441250EF1
:10088300F5827403350DF583E49375F008A4FF74C2
:1008930040250EF5827403350DF583E4937C002F18
:1008A300FFEC35F0CF24FFF50BEF34FFF50AFE74B0
:1008B3008B250BF58274063EF583E493F50974A743
:1008C300250BF58274063EF583E493F50C744225FB
:1008D3000EF5827403350DF583E493F5087403254F
:1008E3000EF50EE4350DF50DC3E50A6480948050D2
:1008F30008E4F50DF50E750F05120C6DE50F640593
:10090300600302098E20000302098E74A7250EF5E9
:10091300827403350DF583E49375F008A4FF74A680
:10092300250EF5827403350DF583E4937C002FFFC8
:10093300EC35F0CF24FFF50BEF34FFF50AFE748B93
:10094300250BF58274063EF583E493F50974A72518
:100953000BF58274063EF583E493F50C74A8250E1B
:10096300F5827403350DF583E493F5087403250EBE
:10097300F50EE4350DF50DC3E50A64809480500847
:10098300E4F50DF50E750F06120C6DE50F640660A8
:1009930003020A1D200003020A1D7422250EF5829C
:1009A3007404350DF583E49375F008A4FF742125D1
:1009B3000EF5827404350DF583E4937C002FFFEC70
:1009C30035F0CF24FFF50BEF34FFF50AFE748B25CA
:1009D3000BF58274063EF583E493F50974A7250BA2
:1009E300F58274063EF583E493F50C7423250EF526
:1009F300827404350DF583E493F5087403250EF52D
:100A03000EE4350DF50DC3E50A648094805008E4C7
:100A1300F50DF50E750F07120C6DE50F64076003F6
:100A2300020AAC200003020AAC740C250EF5827492
:100A330005350DF583E49375F008A4FF740B250EBB
:100A4300F5827405350DF583E4937C002FFFEC35B7
:100A5300F0CF24FFF50BEF34FFF50AFE748B250B63
:100A6300F58274063EF583E493F50974A7250BF527
:100A73008274063EF583E493F50C740D250EF5821E
:100A83007405350DF583E493F5087403250EF50E0F
:100A9300E4350DF50DC3E50A648094805008E4F550
:100AA3000DF50E750F08120C6DE50F640860030257
:100AB3000B3B200003020B3B74BD250EF58274052E
:100AC300350DF583E49375F008A4FF74BC250EF58A
:100AD300827405350DF583E4937C002FFFEC35F02C
:100AE300CF24FFF50BEF34FFF50AFE748B250BF5CE
:100AF3008274063EF583E493F50974A7250BF5820A
:100B030074063EF583E493F50C74BE250EF58274EA
:100B130005350DF583E493F5087403250EF50EE40E
:100B2300350DF50DC3E50A648094805008E4F50D96
:090B3300F50E750F01120C6D2284
:03000000020C7A75
:0C0C7A00787FE4F6D8FD758120020B3C69
:100C5C00EB9FF5F0EA9E42F0E99D42F0E89C45F0EE
:010C6C002265
:00000001FF
