:0300000002052FC7
:0C052F00787FE4F6D8FD75812002057687
:10086000546865726D6F6D657465723A2020202042
:10087000200054656D70204E6F773A2020202E2086
:0408800020432000F1
:10080C00C2A57F017E0012081D8B80D2A77F017EBE
:01081C0000DB
:10081D00D3EF9400EE940040147D6E7C00ED1D70BE
:0D082D00011CED4C70F7EF1F70E61E80E31C
:01083A00229B
:090974007F057E0012081D7F388A
:0C097D00AB07C2A7C2A612080CC2A7223A
:0C099D00AB07C2A7D2A612080CC2A7220A
:10077C007F3812097D1209741209747F0812097DE1
:10078C007F0112097D7F0612097D7F0C12097D7F86
:10079C008012097DE4FAEA90086093FF12099D0A21
:1007AC00BA10F37FC012097DE4FAEA90087293FF45
:0707BC0012099D0ABA10F3B7
:0107C3002213
:1008CA00C2B77F677E00EF1F70011EEF4E70F7D22E
:0E08DA00B77E007F04EF1F70011EEF4E70F717
:0108E80022ED
:10088400C2B70FBF0000D2B70FBF00000FBF0000F8
:10089400A2B792007E007F08EF1F70011EEF4E701A
:0308A400F7A200B8
:0108A700222E
:10090700E4FD7C01120884E433FFC433333354809D
:0C091700FEEDC3134EFD0CBC09EAAF0559
:0109230022B1
:10094000C2B70FBF00000FBF0000D2B77E007F0804
:09095000EF1F70011EEF4E70F75D
:01095900227B
:10095A00C2B77F087E00EF1F70011EEF4E70F7D2FC
:09096A00B70FBF00000FBF000031
:010973002261
:02092400AD071D
:100926007B01ED139200EDC313FD30000512094063
:09093600800312095A0BBB09E908
:01093F002295
:100989001208CA7F017E0012081D7FCC1209247F3C
:0409990044020924E7
:1006D8001208CA7F017E0012081D7FCC1209247FF0
:1006E800BE120924120907AB07120907EFFEEBFF38
:1006F800FDAC06E4120211E4FBFA7980783D1201A0
:10070800068F1A8E198D188C17E4FFFE7D207C4108
:10071800AB1AAA19A918A817120106E4FBFAF97866
:070728003F12001512024A06
:01072F0022A7
:1008A800686967682074656D703A202020202043AD
:1008B8000074696D653A20202020202020204D49B1
:0208C8004E00E0
:0B09A90002130001021500010108000C
:0B09B500EF1FAC0670011E4C70F62214
:060622008D17AB07AA06CC
:100628007C007D641202DD8F187C007D64AF03AE10
:10063800021202DD7E007F0ACFCDCFCECCCE1202D1
:10064800DD8F19AE02AF037C007D0A1202DD8D1A20
:10065800AF1712097DE5182430FF12099DE519240A
:1006680030FF12099DE5172403FF12097DE51A24BE
:0506780030FF02099DA6
:060730007D8BAF0AAE094B
:060736008D19AB07AA06B5
:10073C007C007D641202DD8F1AAE02AF037C007D5B
:10074C00641202DD7E007F0ACFCDCFCECCCE12025A
:10075C00DD8F1BAF1912097DE51B2430FF12099D9B
:10076C00E51A2430FF12099DE5192403FF02097DC7
:0608E9007DCAAF0CAE0B4E
:0208EF00AB0557
:1008F1007C007D0A1202DD8D19AF0312097DE51915
:060901002430FF02099DF5
:100376007F8012097DE4F517E5179008A893FF1210
:10038600099D0517E517C3941040ED7FC012097D3E
:10039600E4F518E5189008B993FF12099D0518E5CC
:1003A60018C3941040EDE508700302052C120730BF
:1003B6001208E9E50860EF24FE60070470107FCAA2
:1003C60080027F8B12097D7F0F12097D8003E4F581
:1003D6000830B0030204C5E508640160030204C5E1
:1003E6007F32FE12081D30B0030204C50514E51461
:1003F6007002051330B0FDAE13AF147C007D0A12F7
:100406000332EC60030204C5ED14B4090040030294
:1004160004C590042675F003A4C58325F0C583732F
:1004260002044102044F02045D02046B02047902D5
:1004360004870204950204A30204B1750B00750C2F
:1004460001750D03750EE8806E750B00750C02754F
:100456000D07750ED08060750B00750C03750D0BBE
:10046600750EB88052750B00750C04750D0F750E60
:10047600A08044750B00750C05750D13750E8880EC
:1004860036750B00750C06750D17750E7080287580
:100496000B00750C07750D1B750E58801A750B0031
:1004A600750C08750D1F750E40800C750B00750CCC
:1004B60009750D23750E281208E97FD512097D30BE
:1004C600B1030203B9E508640260030203B97F0AB7
:1004D600FE12081D30B1030203B90516E5167002B7
:1004E600051530B1FDAE15AF167C007D0412033242
:1004F600EC60030203B9ED24FE60121460172402B7
:1005060060030203B9750900750A14800E750900A7
:10051600750A328006750900750A501207307F8BFE
:0905260012097D0203B902077CF1
:10083B0012077CD295C2A0E4F508F509750A14F5E8
:10084B000B750C01D2AFD2A8D2A9758901D28875CC
:05085B008CEEF58A227D
:10067D00C2A012083BE508600512037680F7E50875
:10068D0070F37F64FE12081D1209891206D88E0FB1
:10069D008F10AE09AF0A7C007D0A1202CBC3E510A4
:1006AD009FE50F9E4006D28CD2A08004C28CC2A0C2
:1006BD007F0A7E0012081D7DCAAF10AE0F120622F2
:0B06CD007F647E0012081DC28C80AA12
:030003000207C42D
:1007C400C0E0C0F0C083C082C0D075D000C000C0FB
:1007D40001C002C003C004C005C006C0077F327E4A
:1007E4000012081DE5B060020508530803D007D0C5
:1007F40006D005D004D003D002D001D000D0D0D090
:0808040082D083D0F0D0E03275
:03000B000205BB30
:1005BB00C0E0C0F0C083C082C0D075D000C000C006
:1005CB0001C002C003C004C005C006C007758CEE95
:1005DB00758A00E50E150E7002150DD3E50E94000D
:1005EB00E50D648094805014D2A07FC87E00120861
:1005FB001DB2957F017E001209B5C28CD007D006C3
:10060B00D005D004D003D002D001D000D0D0D082FE
:07061B00D083D0F0D0E032E3
:10000E000202B6E86480F8E933E83360110460F068
:10001E00ED33EC337009E8FCE9FDEAFEEBFF220458
:10002E0060DED3EB9FEA9EE99DE8C2E78CF0C2F753
:10003E0095F0400CE8CCF8E9CDF9EACEFAEBCFFB1F
:10004E0012028185D0F05804700320D5B3E80470F5
:10005E00075002B2D50202C092D5EC0460F7E4CC90
:10006E00C0E0C398F8603B94186008400DD0E0FBE8
:10007E00020298E4FBFAC9FC8028E830E406E4C9E1
:10008E00FBE4CAFCE830E305E4C9CACBFCE854073C
:10009E006010F8C3E913F9EA13FAEB13FBEC13FC47
:1000AE00D8F130F52FC3E49CFCEF9BFFEE9AFEEDEA
:1000BE0099FDD0E0FBEF4E4D4C701222DB03020295
:1000CE00BDEC2CFCEF33FFEE33FEED33FDED30E7F0
:1000DE00EB020298EF2BFFEE3AFEED39FDD0E0FB7E
:1000EE0050130BBB00030202C0ED13FDEE13FEEF27
:0800FE0013FFEC13FC02029851
:10010600EC4D6011E8497017ED33EC3304600DE4F3
:10011600FCFFFEFD22E933E8330470F80202B61252
:10012600028158046009E4CC248150062850090253
:1001360002C02840030202BDC0E0EB4A7044B98009
:1001460006D0E0FB0202ACEF4E701CBD8008EBFF50
:10015600EAFEE9FD80EBE98DF0A4FEE5F00201EF91
:10016600E9CDF9EAFEEBFFEF89F0A4FCE5F0CE89D4
:10017600F0A42EFFE435F0CD89F0A42DFEE435F091
:100186008067EF4E7005BD80D780C3EF8BF0A4ACBF
:10019600F0EE8BF0A42CFCE435F0F8EF8AF0A42CFA
:1001A600E5F038FCE433CB8DF0A42CFCE5F03BF80D
:1001B600EE8AF0A42CFCE5F038F8E433CF89F0A4FD
:1001C6002CFCE5F038CF3400CE89F0A42FFFE5F003
:1001D6003EFEE433C98DF0A42EFEE5F039CD8AF05B
:1001E600A42FFFE5F03EFEE43DFD33D0E0FB5007D3
:1001F6000BBB000F0202C0EC2CFCEF33FFEE33FE0C
:06020600ED33FD02029839
:10020C0075F020800E75F010800575F0087D007E6D
:10021C00007F003392D530D503120368EC334010C5
:10022C00EF33FFEE33FEED33FDEC33FCD5F0ED2276
:0E023C00E5F0247EA2D513CC92E7CDCEFF22B2
:10024A00EDD2E7CD33EC3392D524814006E4FFFEAC
:10025A00FDFC22FCE4CFCECDCC24E0501174FF800B
:10026A00EDC3CC13CCCD13CDCE13CECF13CF0470A8
:07027A00F030D5DE0203683D
:10028100E9D2E7C933E833F892D5EDD2E7CD33ECC3
:0702910033FC5002B2D5223C
:10029800EC30E7100FBF000C0EBE00080DBD0004C7
:1002A8000BEB6014A2D5EB13FCED92E7FD2274FF73
:1002B800FCFDFEFF22E480F8A2D574FF13FC7D80CC
:0302C800E480EFE0
:10053B0002067DE493A3F8E493A34003F68001F253
:10054B0008DFF48029E493A3F85407240CC8C333C1
:10055B00C4540F4420C8834004F456800146F6DF90
:10056B00E4800B01020408102040809009A9E47E6E
:10057B00019360BCA3FF543F30E509541FFEE49385
:10058B00A360010ECF54C025E060A840B8E493A34C
:10059B00FAE493A3F8E493A3C8C582C8CAC583CA77
:1005AB00F0A3C8C582C8CAC583CADFE9DEE780BE2F
:0109B4000042
:1002CB00EF8DF0A4A8F0CF8CF0A428CE8DF0A42E47
:0202DB00FE2201
:1002DD00BC000BBE0029EF8DF084FFADF022E4CC05
:1002ED00F875F008EF2FFFEE33FEEC33FCEE9DECCE
:1002FD00984005FCEE9DFE0FD5F0E9E4CEFD22ED14
:10030D00F8F5F0EE8420D21CFEADF075F008EF2F5D
:10031D00FFED33FD4007985006D5F0F222C398FD4E
:05032D000FD5F0EA22EB
:10033200C2D5EC30E709B2D5E4C39DFDE49CFCEEE6
:1003420030E715B2D5E4C39FFFE49EFE1202DDC37F
:10035200E49DFDE49CFC80031202DD30D507C3E47A
:060362009FFFE49EFE2255
:0E036800C3E49FFFE49EFEE49DFDE49CFC22A6
:00000001FF
